:100000000C945E000C9486000C9486000C94860080
:100010000C9486000C9486000C9486000C94860048
:100020000C9486000C9486000C9486000C94860038
:100030000C9486000C9486000C9486000C94860028
:100040000C94CF020C9486000C949D020C947702C1
:100050000C9486000C9486000C9486000C94860008
:100060000C9486000C948600000000080002010039
:100070000003040700000000000000000000000072
:10008000250028002B0000000000240027002A0083
:10009000040404040404040402020202020203032E
:1000A0000303030301020408102040800102040836
:1000B000102001020408102019033B0511241FBE63
:1000C000CFEFD8E0DEBFCDBF21E0A8E2B1E001C0B4
:1000D0001D92A83DB207E1F711E0A0E0B1E0E6E033
:1000E000F3E102C005900D92A832B107D9F710E0F4
:1000F000CDE5D0E004C02197FE010E946407CC3515
:10010000D107C9F70E949D030C9476090C94000056
:1001100090E0FC01EC55FF4F2491FC01E057FF4FAC
:100120008491882399F090E0880F991FFC01EA5789
:10013000FF4FA591B491FC01E458FF4F8591949134
:100140008FB7F894EC91E22BEC938FBF0895CF9288
:10015000DF92EF92FF920F931F93CF93DF936C0187
:100160007A018B01C0E0D0E0CE15DF0589F0D8011F
:100170006D918D01D601ED91FC910190F081E02D02
:10018000C6010995892B11F47E0102C02196ECCF9E
:10019000C701DF91CF911F910F91FF90EF90DF90FA
:1001A000CF900895089580E090E00895FC01538D6C
:1001B000448D252F30E0842F90E0821B930B541741
:1001C00010F0CF96089501970895FC01918D828DCE
:1001D000981761F0828DDF01A80FB11D5D968C919B
:1001E000928D9F5F9F73928F90E008958FEF9FEFA6
:1001F0000895FC01918D828D981731F0828DE80F62
:10020000F11D858D90E008958FEF9FEF0895FC011B
:10021000918D228D892F90E0805C9F4F821B9109E8
:100220008F739927089581E391E00E94070121E0EF
:10023000892B09F420E0822F0895FC01848DDF01D1
:10024000A80FB11DA35ABF4F2C91848D90E0019649
:100250008F739927848FA689B7892C93A089B18938
:100260008C9180648C93938D848D981306C0028842
:10027000F389E02D80818F7D80830895EF92FF9236
:100280000F931F93CF93DF93EC0181E0888F9B8DB9
:100290008C8D981305C0E889F989808185FD24C07B
:1002A000F62E0B8D10E00F5F1F4F0F731127E02EFE
:1002B0008C8DE8120CC00FB607FCFACFE889F989DB
:1002C000808185FFF5CFCE010E941D01F1CF8B8D7E
:1002D000FE01E80FF11DE35AFF4FF0820B8FEA8910
:1002E000FB898081806207C0EE89FF896083E8898D
:1002F000F98980818064808381E090E0DF91CF91F3
:100300001F910F91FF90EF900895CF93DF93EC0131
:10031000888D8823C9F0EA89FB89808185FD05C025
:10032000A889B9898C9186FD0FC00FB607FCF5CF5F
:10033000808185FFF2CFA889B9898C9185FFEDCFA7
:10034000CE010E941D01E7CFDF91CF91089580E09B
:1003500090E0892B29F00E94130181110C94000078
:10036000089590E0FC01E859FF4F3491FC01EC55F1
:10037000FF4F2491FC01E057FF4FE491EE2309F475
:100380003BC0332339F1333091F038F43130A9F0E8
:10039000323001F584B58F7D12C0373091F038309E
:1003A000A1F03430B9F4809180008F7D03C080913A
:1003B00080008F77809380000DC084B58F7784BDD7
:1003C00009C08091B0008F7703C08091B0008F7D0D
:1003D0008093B000F0E0EE0FFF1FE458FF4FA591AF
:1003E000B4918FB7F894EC91611103C020952E233E
:1003F00001C02E2B2C938FBF08953FB7F8948091A6
:100400002D0190912E01A0912F01B091300126B5C0
:10041000A89B05C02F3F19F00196A11DB11D3FBF3C
:10042000BA2FA92F982F8827820F911DA11DB11DCA
:10043000BC01CD0142E0660F771F881F991F4A95C6
:10044000D1F70895009769F0FC0101900020E9F7C9
:100450003197AF01481B590BBC0181E391E00C942B
:10046000A70080E090E008958F929F92AF92BF9294
:100470000F931F93CF93DF93CDB7DEB7A1970FB63E
:10048000F894DEBF0FBECDBF19A2423008F44AE097
:100490008E010F5D1F4F842E912CA12CB12CA50134
:1004A00094010E944207E62FB901CA0101501109C7
:1004B000EA3014F4E05D01C0E95CD801EC93232B31
:1004C000242B252B61F7C8010E942202A1960FB6AA
:1004D000F894DEBF0FBECDBFDF91CF911F910F917A
:1004E000BF90AF909F908F9008950E9461091F92D6
:1004F0000F920FB60F9211242F933F934F935F9358
:100500006F937F938F939F93AF93BF93EF93FF93DB
:1005100081E391E00E941D01FF91EF91BF91AF91A6
:100520009F918F917F916F915F914F913F912F910B
:100530000F900FBE0F901F9018951F920F920FB63D
:100540000F9211242F938F939F93EF93FF93E0913A
:100550004101F09142018081E0914701F091480111
:1005600082FD12C0908180914A018F5F8F7320912C
:100570004B01821751F0E0914A01F0E0EF5CFE4F31
:10058000958F80934A0101C08081FF91EF919F91E7
:100590008F912F910F900FBE0F901F9018951F9263
:1005A0000F920FB60F9211242F933F938F939F9327
:1005B000AF93BF938091290190912A01A0912B01C3
:1005C000B0912C013091280123E0230F2D3720F426
:1005D0000196A11DB11D05C026E8230F0296A11D9D
:1005E000B11D209328018093290190932A01A093A3
:1005F0002B01B0932C0180912D0190912E01A0919F
:100600002F01B09130010196A11DB11D80932D01E4
:1006100090932E01A0932F01B0933001BF91AF9121
:100620009F918F913F912F910F900FBE0F901F9030
:100630001895109234011092330188EE93E0A0E0F7
:10064000B0E08093350190933601A0933701B093C9
:1006500038018BE091E0909332018093310185EC79
:1006600090E090933E0180933D0184EC90E0909364
:10067000400180933F0180EC90E090934201809391
:10068000410181EC90E0909344018093430182EC1E
:1006900090E0909346018093450186EC90E0909322
:1006A00048018093470110924A0110924B01109229
:1006B0004C0110924D011092CF011092CE01109278
:1006C000D1011092D0011092D3011092D20161E0B9
:1006D00070E080E090E00E949708009789F0909386
:1006E000CF018093CE011092D1011092D0012091C0
:1006F000D2013091D301232BC1F4FC01108215C02B
:100700008091CE019091CF01009711F00E94FF07D8
:100710001092CF011092CE011092D3011092D2010B
:100720001092D1011092D00108951092D30110922D
:10073000D20167E271E00C946F09789484B582600D
:1007400084BD84B5816084BD85B5826085BD85B575
:10075000816085BD80916E00816080936E001092F3
:10076000810080918100826080938100809181006E
:1007700081608093810080918000816080938000FF
:100780008091B10084608093B1008091B00081605D
:100790008093B00080917A00846080937A00809189
:1007A0007A00826080937A0080917A0081608093E1
:1007B0007A0080917A00806880937A001092C1005C
:1007C000E0914101F091420182E08083E0913D019E
:1007D000F0913E011082E0913F01F09140018FECD9
:1007E000808310924901E0914501F091460186E035
:1007F0008083E0914301F091440180818061808396
:10080000E0914301F0914401808188608083E09110
:100810004301F0914401808180688083E09143012D
:10082000F091440180818F7D808384E00E94880064
:1008300083E00E94880010E4C3EED3E010937C00B4
:1008400080917A00806480937A0080917A0086FD9E
:10085000FCCF609178008091790070E0782B072EB2
:10086000000C880B990B0E9448052AE038E240EA08
:100870005BE30E94A7056B017C0120E030E040ECC7
:100880005FE30E94410587FD10920001A7019601D8
:10089000C701B6010E943D07882319F089E191E064
:1008A0001AC046015701E894B7F82FEF3FEF4FE722
:1008B0005FE7C501B4010E943D0781110FC02FEF12
:1008C0003FEF4FE75FE7C501B4010E9441051816ED
:1008D0002CF48DE191E00E94220282C02FEF3FEFC5
:1008E0004FE75FE4C701B6010E94380718161CF4F1
:1008F00081E291E0F0CF2FEF3FEF4FE75FECC701D0
:10090000B6010E94410587FDF3CF20E030E0A90148
:10091000C701B6010E94410587FF0FC0E091310178
:10092000F09132010190F081E02D6DE281E391E0E0
:100930000995F7FAF094F7F8F0942AE037ED43EAD6
:100940005BE3C701B6010E949D064B015C010E945A
:1009500009076B017C010E9446059B01AC01C501A2
:10096000B4010E949C064B015C014AE0C701B6013C
:100970000E943402E0913101F09132010190F08146
:10098000E02D6EE281E391E0099520E030E040E265
:1009900051E4C501B4010E94A7054B015C010E940E
:1009A00009076B01E12CF12C4AE0C701B6010E9456
:1009B0003402C701B6010E9446059B01AC01C50186
:1009C000B4010E949C0620E030E040E251E40E9425
:1009D000A7050E94090780E090E04AE00E943402E7
:1009E00085E291E00E9422020E94FD014B015C0120
:1009F00094E6C92ED12CE12CF12C0E94FD01DC01E2
:100A0000CB0188199909AA09BB09883E9340A10521
:100A1000B10558F021E0C21AD108E108F10888EECA
:100A2000880E83E0981EA11CB11CC114D104E104FE
:100A3000F10419F7809100018823D1F061E083E08F
:100A40000E94B10180E1E82E87E2F82E61E084E0A7
:100A50000E94B101CE010197F1F760E084E00E94AD
:100A6000B101CE010197F1F781E0E81AF10871F7C1
:100A70000E94A701E3CE8091CE019091CF010C940A
:100A8000FF070E94830508F481E00895E89409C0F7
:100A900097FB3EF490958095709561957F4F8F4FB1
:100AA0009F4F9923A9F0F92F96E9BB279395F695C7
:100AB000879577956795B795F111F8CFFAF4BB0F45
:100AC00011F460FF1BC06F5F7F4F8F4F9F4F16C0A9
:100AD000882311F096E911C0772321F09EE8872F33
:100AE000762F05C0662371F096E8862F70E060E0EF
:100AF0002AF09A95660F771F881FDAF7880F969568
:100B0000879597F90895990F0008550FAA0BE0E80B
:100B1000FEEF16161706E807F907C0F012161306BF
:100B2000E407F50798F0621B730B840B950B39F4FF
:100B30000A2661F0232B242B252B21F408950A2665
:100B400009F4A140A6958FEF811D811D08950E9493
:100B5000BA050C942B060E941D0638F00E9424064C
:100B600020F0952311F00C9414060C941A0611240D
:100B70000C945F060E943C0670F3959FC1F3950F9D
:100B800050E0551F629FF001729FBB27F00DB11D11
:100B9000639FAA27F00DB11DAA1F649F6627B00DA1
:100BA000A11D661F829F2227B00DA11D621F739F8A
:100BB000B00DA11D621F839FA00D611D221F749F98
:100BC0003327A00D611D231F849F600D211D822FDF
:100BD000762F6A2F11249F5750409AF0F1F0882306
:100BE0004AF0EE0FFF1FBB1F661F771F881F915033
:100BF0005040A9F79E3F510580F00C9414060C94C8
:100C00005F065F3FE4F3983ED4F38695779567954A
:100C1000B795F795E7959F5FC1F7FE2B880F911D5C
:100C20009695879597F9089597F99F6780E870E002
:100C300060E008959FEF80EC089500240A94161652
:100C4000170618060906089500240A9412161306BA
:100C5000140605060895092E0394000C11F4882348
:100C600052F0BB0F40F4BF2B11F460FF04C06F5F64
:100C70007F4F8F4F9F4F089557FD9058440F551F3A
:100C800059F05F3F71F04795880F97FB991F61F00E
:100C90009F3F79F087950895121613061406551F85
:100CA000F2CF4695F1DF08C0161617061806991FF1
:100CB000F1CF86957105610508940895E894BB27E6
:100CC00066277727CB0197F908952F923F924F928D
:100CD0005F926F927F928F929F92AF92BF92CF92CC
:100CE000DF92EF92FF920F931F93CF93DF93CDB7D5
:100CF000DEB7CA1BDB0B0FB6F894DEBF0FBECDBF4D
:100D000009942A88398848885F846E847D848C841D
:100D10009B84AA84B984C884DF80EE80FD800C8126
:100D20001B81AA81B981CE0FD11D0FB6F894DEBF09
:100D30000FBECDBFED0108955058BB27AA270E94D2
:100D4000B4060C942B060E941D0638F00E9424065F
:100D500020F039F49F3F19F426F40C941A060EF48F
:100D6000E095E7FB0C941406E92F0E943C0658F32B
:100D7000BA17620773078407950720F079F4A6F580
:100D80000C945E060EF4E0950B2EBA2FA02D0B01ED
:100D9000B90190010C01CA01A0011124FF27591BC0
:100DA00099F0593F50F4503E68F11A16F040A22FC6
:100DB000232F342F4427585FF3CF46953795279537
:100DC000A795F0405395C9F77EF41F16BA0B620B36
:100DD000730B840BBAF09150A1F0FF0FBB1F661F7D
:100DE000771F881FC2F70EC0BA0F621F731F841FC0
:100DF00048F4879577956795B795F7959E3F08F0E6
:100E0000B0CF9395880F08F09927EE0F97958795A7
:100E100008950E94440688F09F5798F0B92F9927AB
:100E2000B751B0F0E1F0660F771F881F991F1AF0D5
:100E3000BA95C9F714C0B13091F00E945E06B1E0D6
:100E400008950C945E06672F782F8827B85F39F0D5
:100E5000B93FCCF3869577956795B395D9F73EF46E
:100E600090958095709561957F4F8F4F9F4F089516
:100E70000E94830508F48FEF08950E948305880B74
:100E8000990B0895A1E21A2EAA1BBB1BFD010DC0F0
:100E9000AA1FBB1FEE1FFF1FA217B307E407F5072A
:100EA00020F0A21BB30BE40BF50B661F771F881F06
:100EB000991F1A9469F760957095809590959B019C
:100EC000AC01BD01CF010895EE0FFF1F0590F49115
:100ED000E02D0994CF93DF938230910510F482E0E6
:100EE00090E0E091D601F091D70120E030E0C0E041
:100EF000D0E0309711F14081518148175907C0F077
:100F00004817590761F482819381209719F09B83D8
:100F10008A832BC09093D7018093D60126C02115D8
:100F2000310519F04217530718F49A01BE01DF0189
:100F3000EF010280F381E02DDCCF2115310509F1AD
:100F4000281B390B2430310590F412968D919C9119
:100F500013976115710521F0FB019383828304C00F
:100F60009093D7018093D601FD01329644C0FD01D4
:100F7000E20FF31F81939193225031092D933C93FB
:100F80003AC02091D4013091D501232B41F4209116
:100F90000301309104013093D5012093D4012091B5
:100FA0000101309102012115310541F42DB73EB701
:100FB0004091050150910601241B350BE091D401AD
:100FC000F091D501E217F307A0F42E1B3F0B281771
:100FD000390778F0AC014E5F5F4F2417350748F0B2
:100FE0004E0F5F1F5093D5014093D401819391938D
:100FF00002C0E0E0F0E0CF01DF91CF9108950F93C0
:101000001F93CF93DF93009709F48CC0FC013297B4
:10101000138212820091D6011091D701011511059A
:1010200081F420813181820F931F2091D40130916E
:10103000D5012817390779F5F093D501E093D4014C
:1010400071C0D80140E050E0AE17BF0750F41296CF
:101050002D913C911397AD012115310509F1D9016D
:10106000F3CF9D01DA013383228360817181860F82
:10107000971F8217930769F4EC0128813981260FA5
:10108000371F2E5F3F4F318320838A819B8193835B
:101090008283452B29F4F093D701E093D60142C017
:1010A0001396FC93EE931297ED01499159919E018D
:1010B000240F351FE217F30771F480819181840FAB
:1010C000951F029611969C938E938281938113961D
:1010D0009C938E931297E0E0F0E0D80112968D91E8
:1010E0009C911397009719F0F8018C01F6CF8D9120
:1010F0009C9198012E5F3F4F820F931F2091D40146
:101100003091D5012817390769F4309729F41092E6
:10111000D7011092D60102C0138212821093D5011A
:101120000093D401DF91CF911F910F910895A0E01A
:10113000B0E0EDE9F8E00C946906EC01009721F4C9
:10114000CB010E946A07B8C0FC01E60FF71F9C01A3
:1011500022503109E217F30708F4ACC0D9010D9110
:101160001C91119706171707B0F00530110508F408
:101170009FC0C80104978617970708F499C00250CA
:101180001109061B170B019311936D937C93CF01EB
:101190000E94FF078DC05B01A01AB10A4C01800EAE
:1011A000911EA091D601B091D70140E050E0E12C12
:1011B000F12C109709F44AC0A815B905D1F56D9026
:1011C0007C901197630182E0C80ED11CCA14DB0425
:1011D00080F1A3014A195B096A0182E0C80ED11CA3
:1011E0001296BC9012971396AC91B5E0CB16D10431
:1011F00040F0B282A38351834083D9016D937C93E5
:101200000AC00E5F1F4FC301800F911FF901918328
:101210008083EB2DFA2FE114F10431F0D7011396FE
:10122000FC93EE93129744C0F093D701E093D6015C
:101230003FC08D919C9111974817590708F4AC0154
:101240007D0112960D90BC91A02DB3CF8091D40159
:101250009091D50188159905E1F446175707C8F410
:101260008091010190910201009741F48DB79EB7E2
:101270004091050150910601841B950BE817F90771
:10128000C8F4F093D501E093D401F9017183608330
:101290000FC0CB010E946A077C01009759F0A8019A
:1012A000BE010E946609CE010E94FF07C70104C06B
:1012B000CE0102C080E090E0CDB7DEB7EEE00C9446
:1012C000850681E090E0F8940C947609FB01DC013E
:1012D00002C001900D9241505040D8F70895FB0193
:1012E000DC0101900D920020E1F7089510E0CDE5BA
:1012F000D0E004C0FE010E9464072196CE35D107DC
:06130000C9F7F894FFCFCD
:10130600010000D8018000000000003E01A700D6C1
:101316000085010701E500F9006E616E00696E66E1
:08132600006F7666000D0A005D
:00000001FF
