:100000000C9463000C948B000C948B000C94930361
:100010000C9493030C9493030C948B000C948B001E
:100020000C948B000C948B000C948B000C948B0024
:100030000C948B000C948B000C948B000C948B0014
:100040000C94F1020C948B000C9461030C943B0310
:100050000C948B000C948B000C948B000C948B00F4
:100060000C948B000C948B0000000008000201002F
:100070000003040700000000000000000000000072
:10008000250028002B0000000000240027002A0083
:1000900000000000230026002900040404040404D6
:1000A0000404020202020202030303030303010227
:1000B00004081020408001020408102001020408F6
:1000C00010200D046D0711241FBECFEFD8E0DEBF56
:1000D000CDBF11E0A0E0B1E0E0E8F4E102C005909E
:1000E0000D92A039B107D9F722E0A0E9B1E001C033
:1000F0001D92A63CB207E1F710E0C2E6D0E004C0D2
:100100002197FE010E942108C136D107C9F70E943C
:100110001D050C94330A0C940000CF92DF92EF92ED
:10012000FF920F931F93CF93DF936C017A018B01A2
:10013000C0E0D0E0CE15DF0589F0D8016D918D01CA
:10014000D601ED91FC910190F081E02DC601099559
:10015000892B11F47E0102C02196ECCFC701DF91FB
:10016000CF911F910F91FF90EF90DF90CF90089566
:10017000FC01538D448D252F30E0842F90E0821BAD
:10018000930B541710F0CF96089501970895FC0132
:10019000918D828D981761F0828DDF01A80FB11DBE
:1001A0005D968C91928D9F5F9F73928F90E00895E2
:1001B0008FEF9FEF0895FC01918D828D981731F09C
:1001C000828DE80FF11D858D90E008958FEF9FEFF0
:1001D0000895FC01918D228D892F90E0805C9F4FC6
:1001E000821B91098F739927089582EE91E00E94F6
:1001F000E90021E0892B09F420E0822F0895FC0119
:10020000848DDF01A80FB11DA35ABF4F2C91848D9F
:1002100090E001968F739927848FA689B7892C93D4
:10022000A089B1898C9180648C93938D848D98136F
:1002300006C00288F389E02D80818F7D8083089538
:10024000EF92FF920F931F93CF93DF93EC0181E026
:10025000888F9B8D8C8D981305C0E889F9898081E2
:1002600085FD24C0F62E0B8D10E00F5F1F4F0F731E
:100270001127E02E8C8DE8120CC00FB607FCFACFC8
:10028000E889F989808185FFF5CFCE010E94FF00C2
:10029000F1CF8B8DFE01E80FF11DE35AFF4FF08285
:1002A0000B8FEA89FB898081806207C0EE89FF8914
:1002B0006083E889F98980818064808381E090E0AF
:1002C000DF91CF911F910F91FF90EF900895CF9301
:1002D000DF93EC01888D8823C9F0EA89FB8980814E
:1002E00085FD05C0A889B9898C9186FD0FC00FB620
:1002F00007FCF5CF808185FFF2CFA889B9898C9161
:1003000085FFEDCFCE010E94FF00E7CFDF91CF91B7
:10031000089580E090E0892B29F00E94F50081117A
:100320000C940000089590E0FC01E859FF4F3491CF
:10033000FC01E255FF4F2491FC01E656FF4FE4918A
:10034000EE2309F43BC0332339F1333091F038F414
:100350003130A9F0323001F584B58F7D12C03730CD
:1003600091F03830A1F03430B9F4809180008F7D65
:1003700003C0809180008F77809380000DC084B58A
:100380008F7784BD09C08091B0008F7703C08091C2
:10039000B0008F7D8093B000F0E0EE0FFF1FE458B7
:1003A000FF4FA591B4918FB7F894EC91611103C000
:1003B00020952E2301C02E2B2C938FBF08952091C2
:1003C000D2013091D3012817390771F49091D001EF
:1003D0008091D101981741F0E091D001F0E0E05711
:1003E000FE4F808190E008958FEF9FEF089508956C
:1003F0001F93CF93DF93DC015C962D913C915D9729
:100400002115310539F481E090E013969C938E9389
:1004100012973DC05196ED91FC91529750969C9148
:100420005097892F80951FB75E964C915E9741FB40
:10043000772770F941FD6095F8944081772311F09A
:10044000492B01C048234083E9012197F1F748E097
:10045000508160FF02C0592B01C058235083E9012D
:100460002197F1F76695415099F7772321F0908114
:100470008923808303C08081982B90831FBF5C9663
:100480008D919C915D970197F1F721E030E0C901D2
:10049000DF91CF911F9108952091D2013091D30126
:1004A0002817390771F48091D1012091D00190E093
:1004B000805C9F4F821B910960E470E00E94F90705
:1004C000089580E090E008952091D2013091D30109
:1004D00028173907B9F49091D0018091D10198176C
:1004E00089F0E091D001F0E0E057FE4F808120914B
:1004F000D00130E02F5F3F4F2F7333272093D0017F
:1005000090E008958FEF9FEF0895089580E090E0C8
:1005100008956115710579F0FB0101900020E9F75C
:100520003197AF01461B570BDC01ED91FC91028026
:10053000F381E02D099480E090E008950E941E0A66
:10054000FC01808191810C94BC08EF92FF920F9383
:100550001F93CF93DF93EC01198218821B821A82BA
:100560001D821C8261157105A9F17B01FB010190BF
:100570000020E9F731978F01061B170BB8016F5F59
:100580007F4F80E090E00E945409009759F09983D2
:1005900088831B830A832C813D81232B81F4FC01FA
:1005A00010820DC088819981009711F00E94BC08CB
:1005B000198218821D821C821B821A820BC01D8325
:1005C0000C83B701DF91CF911F910F91FF90EF90B6
:1005D0000C942C0ADF91CF911F910F91FF90EF9017
:1005E00008951F920F920FB60F9211242F933F93ED
:1005F0008F939F93AF93BF938091DE019091DF0122
:10060000A091E001B091E1013091DD0123E0230FE1
:100610002D3720F40196A11DB11D05C026E8230F3A
:100620000296A11DB11D2093DD018093DE01909300
:10063000DF01A093E001B093E1018091D901909195
:10064000DA01A091DB01B091DC010196A11DB11D81
:100650008093D9019093DA01A093DB01B093DC0180
:10066000BF91AF919F918F913F912F910F900FBEAE
:100670000F901F9018951F920F920FB60F92112492
:100680002F933F934F935F936F937F938F939F939A
:10069000AF93BF93EF93FF9382EE91E00E94FF0030
:1006A000FF91EF91BF91AF919F918F917F916F914A
:1006B0005F914F913F912F910F900FBE0F901F9020
:1006C00018951F920F920FB60F9211242F938F93AC
:1006D0009F93EF93FF93E091F201F091F3018081FA
:1006E000E091F801F091F90182FD12C090818091B2
:1006F000FB018F5F8F732091FC01821751F0E09115
:10070000FB01F0E0EE51FE4F958F8093FB0101C09D
:100710008081FF91EF919F918F912F910F900FBE4C
:100720000F901F9018951F920F920FB60F921124E1
:100730002F933F934F935F936F937F938F939F93E9
:10074000AF93BF93EF93FF93E091D201F091D30168
:10075000309709F451C0968DA685B785858591FFA0
:1007600004C09C91892329F447C09C91892309F0F6
:1007700043C0A389B4899C918589809589238C93F2
:10078000868997890197F1F7608D718DA685B78568
:10079000558538E020E0CB010197F1F7822F90E0FA
:1007A00095958795282F4C91452309F02068315065
:1007B00091F7868D81FD20958091D10190E0019681
:1007C0008F7399273091D001381749F0A091D1014A
:1007D000B0E0A057BE4F2C938093D10103C0868D0B
:1007E0008160868F828D938D0197F1F7A389B489FB
:1007F0009C918589892B8C93FF91EF91BF91AF914B
:100800009F918F917F916F915F914F913F912F9128
:100810000F900FBE0F901F901895CF92DF92EF921E
:10082000FF92CF93DF931092E5011092E40168EEFE
:10083000C62E63E0D62EE12CF12CC092E601D092B8
:10084000E701E092E801F092E9018AE091E09093FB
:10085000E3018093E20185EC90E09093EF018093B7
:10086000EE0184EC90E09093F1018093F00180EC34
:1008700090E09093F3018093F20181EC90E09093EB
:10088000F5018093F40182EC90E09093F70180935E
:10089000F60186EC90E09093F9018093F8011092B4
:1008A000FB011092FC011092FD011092FE016AE220
:1008B00071E08CEB92E00E94A50264E371E086EBAC
:1008C00092E00E94A50262E471E080EB92E00E9457
:1008D000A5026FE471E08AEA92E00E94A50262E656
:1008E00071E084EA92E00E94A50265E671E08EE97B
:1008F00092E00E94A5021092820210928102C092A0
:100900008302D0928402E0928502F09286028CE10A
:1009100091E09093800280937F0210929602109251
:100920009502109298021092970210929A021092D9
:10093000990210929C0210929B0260919D026E7F20
:100940006D7F60939D026695617081E068278BE002
:100950000E949301E9EBF0E02491E5EAF0E0849154
:10096000882399F090E0880F991FFC01EA57FF4F08
:10097000A591B491FC01E458FF4F859194918FB7F4
:10098000F894EC91E22BEC938FBFE9EBF0E0E4916B
:10099000E0938F02E5EAF0E0E491F0E0EE0FFF1F54
:1009A000E458FF4F85919491909391028093900227
:1009B000E8EBF0E02491E4EAF0E084918823C1F0D0
:1009C00090E0880F991FFC01EA57FF4FC591D49121
:1009D000FC01E458FF4FA591B4919FB7F89488812A
:1009E000E22FE0958E2388838C91E823EC939FBFC0
:1009F00080919D0281FD04C061E08AE00E94930124
:100A00008AE080938B02E8EBF0E0E491E0938C02C3
:100A1000E4EAF0E0E491F0E0EE0FFF1FE057FF4F53
:100A20008591949190938E0280938D02DF91CF9166
:100A3000FF90EF90DF90CF900895CF93DF93CDB7E5
:100A4000DEB7A7970FB6F894DEBF0FBECDBF789480
:100A500084B5826084BD84B5816084BD85B58260C3
:100A600085BD85B5816085BD80916E008160809374
:100A70006E001092810080918100826080938100DD
:100A800080918100816080938100809180008160ED
:100A9000809380008091B10084608093B100809148
:100AA000B00081608093B00080917A008460809370
:100AB0007A0080917A00826080937A0080917A0037
:100AC000816080937A0080917A00806880937A00B8
:100AD0001092C100E091F201F091F30182E0808375
:100AE000E091EE01F091EF011082E091F001F091C0
:100AF000F1018FEC80831092FA01E091F601F09100
:100B0000F70186E08083E091F401F091F5018081A6
:100B100080618083E091F401F091F501808188602B
:100B20008083E091F401F091F501808180688083F9
:100B3000E091F401F091F50180818F7D8083109226
:100B40009A021092990210929802109297021092B3
:100B50009602109295028FE190E090939C02809310
:100B60009B0290918B02963108F057C021E030E053
:100B700030939602209395022DE130E03093980255
:100B8000209397022DE030E030939A02209399024F
:100B900020916800983050F031E09E3008F430E049
:100BA00081E001C0880F3A95EAF701C084E0822B0A
:100BB00080936800983038F09E3040F0963148F0CD
:100BC00020E030E008C02DE630E005C02BE630E044
:100BD00002C02CE630E030939302209392029830CA
:100BE00030F481E001C0880F9A95EAF70EC0292FF2
:100BF00030E09E3018F42850310902C02E503109DF
:100C000081E001C0880F2A95EAF7809394028091D1
:100C10009B0290919C020197F1F78091990290912B
:100C20009A02892B49F1E091D201F091D30182E03F
:100C3000EF37F80709F1309739F0A389B4899C910F
:100C40008589809589238C9380919D028E7F8093E6
:100C50009D021092D1011092D0018FE792E0909303
:100C6000D3018093D201E0919202F091930290819E
:100C700080919402892B80836CE671E0CE0182968C
:100C80000E94A502C090D701D090D8010D2C000C75
:100C9000EE08FF08F7FE2BC0E091E201F091E301BE
:100CA0000190F081E02D6DE282EE91E0099522271E
:100CB0003327A9012C193D094E095F0919A2FE012C
:100CC000B1967F019AE0892E912CA12CB12CCA01FA
:100CD000B901A50194010E94D707605DF7016293F5
:100CE0007F01211531054105510589F71AC0A7017A
:100CF000960119A2CE0181967C018AE0882E912C62
:100D0000A12CB12CCA01B901A50194010E94D707F9
:100D1000605DF70162937F012115310541055105A1
:100D200089F7B70182EE91E00E9489026FE671E0D7
:100D300082EE91E00E9489024EA15FA16AA17BA18F
:100D400082EE91E00E948D006EE771E082EE91E00C
:100D50000E9489028091D4019091D50105970CF0F1
:100D60007EC04EA15FA16AA17BA18FE792E00E94A5
:100D70008D0060E871E08FE792E00E94890200E058
:100D800010E02FB7F8948091DE019091DF01A091DF
:100D9000E001B091E1012FBF809387029093880218
:100DA000A0938902B0938A02E0917F02F0918002C1
:100DB0000284F385E02D8FE792E0099597FD0BC043
:100DC000F801ED57FE4F2081022E000C330B8217E5
:100DD000930779F53BC02FB7F8948091DE0190918D
:100DE000DF01A091E001B091E1012FBF40918702A6
:100DF000509188026091890270918A02841B950B40
:100E0000A60BB70B4091830250918402609185023A
:100E10007091860284179507A607B70728F280917C
:100E2000D4019091D50101969093D5018093D4017E
:100E300091CF0115110509F4A4CF31E020E08F34E2
:100E4000910509F030E0032F122F9BCF01301105DF
:100E500019F001E010E095CF81E08093D6018091F8
:100E6000D6018823C9F066E871E082EE91E00E9425
:100E7000890260E871E082EE91E00E94890280912F
:100E8000D7019091D80101969093D8018093D70112
:100E90001092D5011092D4018091D601811114C015
:100EA0006AE871E082EE91E00E94890260E871E0F8
:100EB00082EE91E00E9489021092D8011092D7012F
:100EC0001092D5011092D4011092D601CE018296D3
:100ED0000E94A0020E948901FDCF8CE191E09093D5
:100EE000800280937F028091D2019091D3018F572D
:100EF000924071F4E0919202F0919302908180917E
:100F000094028095892380831092D3011092D2019C
:100F10008EE992E00E94A00284EA92E00E94A00280
:100F20008AEA92E00E94A00280EB92E00E94A00276
:100F300086EB92E00E94A0028CEB92E00C94A0025F
:100F40002F923F924F925F926F927F928F929F92D9
:100F5000AF92BF92CF92DF92EF92FF920F931F93C7
:100F6000CF93DF93CDB7DEB7CA1BDB0B0FB6F89478
:100F7000DEBF0FBECDBF09942A88398848885F84B8
:100F80006E847D848C849B84AA84B984C884DF8029
:100F9000EE80FD800C811B81AA81B981CE0FD11D0D
:100FA0000FB6F894DEBF0FBECDBFED010895A1E2EC
:100FB0001A2EAA1BBB1BFD010DC0AA1FBB1FEE1FD3
:100FC000FF1FA217B307E407F50720F0A21BB30B1E
:100FD000E40BF50B661F771F881F991F1A9469F79A
:100FE00060957095809590959B01AC01BD01CF01F6
:100FF000089597FB072E16F4009407D077FD09D0CB
:101000000E940D0807FC05D03EF4909581959F4FF6
:101010000895709561957F4F0895AA1BBB1B51E100
:1010200007C0AA1FBB1FA617B70710F0A61BB70B58
:10103000881F991F5A95A9F780959095BC01CD01FD
:101040000895EE0FFF1F0590F491E02D0994CF93C2
:10105000DF938230910510F482E090E0E091C402C9
:10106000F091C50220E030E0C0E0D0E0309711F10F
:101070004081518148175907C0F04817590761F45A
:1010800082819381209719F09B838A832BC0909350
:10109000C5028093C40226C02115310519F04217FC
:1010A000530718F49A01BE01DF01EF010280F381BA
:1010B000E02DDCCF2115310509F1281B390B243037
:1010C000310590F412968D919C91139761157105DD
:1010D00021F0FB019383828304C09093C502809327
:1010E000C402FD01329644C0FD01E20FF31F81935B
:1010F0009193225031092D933C933AC02091C20222
:101100003091C302232B41F420910201309103015D
:101110003093C3022093C20220910001309101015B
:101120002115310541F42DB73EB74091040150918E
:101130000501241B350BE091C202F091C302E217B6
:10114000F307A0F42E1B3F0B2817390778F0AC01EA
:101150004E5F5F4F2417350748F04E0F5F1F5093C7
:10116000C3024093C2028193919302C0E0E0F0E099
:10117000CF01DF91CF9108950F931F93CF93DF930A
:10118000009709F48CC0FC013297138212820091FF
:10119000C4021091C5020115110581F4208131812D
:1011A000820F931F2091C2023091C3022817390782
:1011B00079F5F093C302E093C20271C0D80140E018
:1011C00050E0AE17BF0750F412962D913C91139743
:1011D000AD012115310509F1D901F3CF9D01DA01E6
:1011E0003383228360817181860F971F8217930753
:1011F00069F4EC0128813981260F371F2E5F3F4F9C
:10120000318320838A819B8193838283452B29F4B8
:10121000F093C502E093C40242C01396FC93EE9390
:101220001297ED01499159919E01240F351FE21744
:10123000F30771F480819181840F951F02961196B6
:101240009C938E938281938113969C938E93129795
:10125000E0E0F0E0D80112968D919C9113970097F1
:1012600019F0F8018C01F6CF8D919C9198012E5FB9
:101270003F4F820F931F2091C2023091C302281763
:10128000390769F4309729F41092C5021092C4020C
:1012900002C0138212821093C3020093C202DF9134
:1012A000CF911F910F910895A0E0B0E0EAE5F9E039
:1012B0000C94A407EC01009721F4CB010E942708AD
:1012C000B8C0FC01E60FF71F9C0122503109E2175C
:1012D000F30708F4ACC0D9010D911C9111970617C2
:1012E0001707B0F00530110508F49FC0C801049736
:1012F0008617970708F499C002501109061B170BAF
:10130000019311936D937C93CF010E94BC088DC013
:101310005B01A01AB10A4C01800E911EA091C4027B
:10132000B091C50240E050E0E12CF12C109709F497
:101330004AC0A815B905D1F56D907C90119763014D
:1013400082E0C80ED11CCA14DB0480F1A3014A1943
:101350005B096A0182E0C80ED11C1296BC901297FC
:101360001396AC91B5E0CB16D10440F0B282A383C2
:1013700051834083D9016D937C930AC00E5F1F4F48
:10138000C301800F911FF90191838083EB2DFA2F08
:10139000E114F10431F0D7011396FC93EE93129708
:1013A00044C0F093C502E093C4023FC08D919C916C
:1013B00011974817590708F4AC017D0112960D905A
:1013C000BC91A02DB3CF8091C2029091C302881529
:1013D0009905E1F446175707C8F4809100019091F0
:1013E0000101009741F48DB79EB7409104015091DF
:1013F0000501841B950BE817F907C8F4F093C302A5
:10140000E093C202F901718360830FC0CB010E9497
:1014100027087C01009759F0A801BE010E94230A09
:10142000CE010E94BC08C70104C0CE0102C080E00A
:1014300090E0CDB7DEB7EEE00C94C00781E090E01D
:10144000F8940C94330AFB01DC0102C001900D9268
:1014500041505040D8F70895FB01DC0101900D92F6
:101460000020E1F7089510E0C2E6D0E004C0FE01DC
:101470000E9421082196C336D107C9F7F894FFCFFF
:101480000000C60280000000000020018D00B800AE
:101490006701E900C700DB0000000000F8018D00D3
:1014A0008602F7014C026402DF01574946495F4E4C
:1014B000414D4500574946495F50415353574F529C
:1014C0004400594F55525F4150495F4B45590061A7
:1014D00070692E7468696E67737065616B2E636FD7
:1014E0006D003830006669656C6431004154002E2F
:1014F00020617420636F6D6D616E64203D3E20003D
:101500000D0A004F4B004F5949004661696C0000BD
:00000001FF
