:100000000C9463000C948B000C948B000C94A00453
:100010000C94A0040C94A0040C948B000C948B0002
:100020000C948B000C948B000C948B000C948B0024
:100030000C948B000C948B000C948B000C948B0014
:100040000C9456040C948B000C94CF020C94A902CF
:100050000C948B000C948B000C948B000C948B00F4
:100060000C948B000C948B000000000025002800ED
:100070002B0000000000240027002A0000000000E0
:1000800023002600290004040404040404040202DA
:100090000202020203030303030301020408102007
:1000A0004080010204081020010204081020000012
:1000B0000008000201000003040700000000000027
:1000C00000009706200A11241FBECFEFD8E0DEBF44
:1000D000CDBF11E0A0E0B1E0EAE8FBE102C005908D
:1000E0000D92AE3FB107D9F723E0AEEFB1E001C00A
:1000F0001D92A433B207E1F710E0C2E6D0E004C0DD
:100100002197FE010E94A60BC136D107C9F70E94B4
:10011000A7070C94B80D0C940000CF92DF92EF92D9
:10012000FF920F931F93CF93DF936C017A018B01A2
:10013000C0E0D0E0CE15DF0589F0D8016D918D01CA
:10014000D601ED91FC910190F081E02DC601099559
:10015000892B11F47E0102C02196ECCFC701DF91FB
:10016000CF911F910F91FF90EF90DF90CF90089566
:10017000FC01538D448D252F30E0842F90E0821BAD
:10018000930B541710F0CF96089501970895FC0132
:10019000918D828D981761F0828DDF01A80FB11DBE
:1001A0005D968C91928D9F5F9F73928F90E00895E2
:1001B0008FEF9FEF0895FC01918D828D981731F09C
:1001C000828DE80FF11D858D90E008958FEF9FEFF0
:1001D0000895FC01918D228D892F90E0805C9F4FC6
:1001E000821B91098F739927089584E092E00E9401
:1001F000E90021E0892B09F420E0822F0895FC0119
:10020000848DDF01A80FB11DA35ABF4F2C91848D9F
:1002100090E001968F739927848FA689B7892C93D4
:10022000A089B1898C9180648C93938D848D98136F
:1002300006C00288F389E02D80818F7D8083089538
:10024000EF92FF920F931F93CF93DF93EC0181E026
:10025000888F9B8D8C8D981305C0E889F9898081E2
:1002600085FD24C0F62E0B8D10E00F5F1F4F0F731E
:100270001127E02E8C8DE8120CC00FB607FCFACFC8
:10028000E889F989808185FFF5CFCE010E94FF00C2
:10029000F1CF8B8DFE01E80FF11DE35AFF4FF08285
:1002A0000B8FEA89FB898081806207C0EE89FF8914
:1002B0006083E889F98980818064808381E090E0AF
:1002C000DF91CF911F910F91FF90EF900895CF9301
:1002D000DF93EC01888D8823C9F0EA89FB8980814E
:1002E00085FD05C0A889B9898C9186FD0FC00FB620
:1002F00007FCF5CF808185FFF2CFA889B9898C9161
:1003000085FFEDCFCE010E94FF00E7CFDF91CF91B7
:10031000089580E090E0892B29F00E94F50081117A
:100320000C94000008950E94A30D0F931F93CF9388
:10033000DF93EC0188819981009729F02A813B8124
:100340002617370788F48B016F5F7F4F0E94D90C07
:10035000009761F0998388831B830A832C813D81F8
:10036000232B11F4FC01108281E001C080E0DF91B9
:10037000CF911F910F910895EF92FF920F931F93CA
:10038000CF93DF93FC01248135816115710511F450
:1003900080E019C041155105A9F07B01EC018A01EB
:1003A000020F131FB8010E949501882389F3288149
:1003B00039818C819D81B701820F931F0E94B10DFD
:1003C0001D830C8381E0DF91CF911F910F91FF90EE
:1003D000EF900895CF93DF93EC0188819981009786
:1003E00011F00E94410C198218821D821C821B820E
:1003F0001A82DF91CF910895CF93DF93EC016115BD
:10040000710561F0FB0101900020E9F73197AF0120
:10041000461B570B0E94BC01811103C0CE010E94F4
:10042000EA01CE01DF91CF910895CF93DF93EC01E4
:10043000FB0144815581608171810E94BC01811161
:1004400003C0CE010E94EA01CE01DF91CF91089551
:10045000EF92FF920F931F93CF93DF93EC017B01F9
:100460008A01BA010E949501811104C0CE010E9447
:10047000EA0107C01D830C83B701888199810E941E
:10048000B10DCE01DF91CF911F910F91FF90EF90B1
:100490000895FB01DC0111961C921E9213961C928A
:1004A0001E92129715961C921E9214978617970704
:1004B00049F0608171816115710521F04481558198
:1004C0000C9428020895FC0111821082138212827A
:1004D000158214826115710551F0FB010190002015
:1004E000E9F73197AF01461B570B0C94280208958A
:1004F000FC01808191810C94410C6115710579F0AA
:10050000FB0101900020E9F73197AF01461B570B23
:10051000DC01ED91FC910280F381E02D099480E0F3
:1005200090E00895CF93DF93FC0144815581608171
:10053000718181EA92E00E948D00EC016BE671E02E
:1005400081EA92E00E947D028C0F9D1FDF91CF9186
:1005500008951F920F920FB60F9211242F933F937D
:100560004F935F936F937F938F939F93AF93BF93BB
:10057000EF93FF9384E092E00E94FF00FF91EF91E0
:10058000BF91AF919F918F917F916F915F914F91AB
:100590003F912F910F900FBE0F901F9018951F92B3
:1005A0000F920FB60F9211242F938F939F93EF9377
:1005B000FF93E0911402F09115028081E0911A02FC
:1005C000F0911B0282FD12C0908180911D028F5F0D
:1005D0008F7320911E02821751F0E0911D02F0E00E
:1005E000EC5FFD4F958F80931D0201C08081FF91CC
:1005F000EF919F918F912F910F900FBE0F901F90B1
:1006000018953FB7F89480912C0390912D03A091F9
:100610002E03B0912F0326B5A89B05C02F3F19F0DC
:100620000196A11DB11D3FBFBA2FA92F982F882772
:10063000820F911DA11DB11DBC01CD0142E0660FCD
:10064000771F881F991F4A95D1F7089520910002BE
:10065000309101022817390771F49091FE018091C1
:10066000FF01981741F0E091FE01F0E0E951FD4FE4
:10067000808190E008958FEF9FEF089508951F9374
:10068000CF93DF93DC015C962D913C915D97211512
:10069000310539F481E090E013969C938E93129784
:1006A0003DC05196ED91FC91529750969C91509778
:1006B000892F80951FB75E964C915E9741FB7727F7
:1006C00070F941FD6095F8944081772311F0492B32
:1006D00001C048234083E9012197F1F748E05081A8
:1006E00060FF02C0592B01C058235083E9012197B4
:1006F000F1F76695415099F7772321F0908189238E
:10070000808303C08081982B90831FBF5C968D915E
:100710009C915D970197F1F721E030E0C901DF91ED
:10072000CF911F9108952091000230910102281766
:10073000390771F48091FF012091FE0190E0805C07
:100740009F4F821B910960E470E00E947E0B089528
:1007500080E090E008952091000230910102281776
:100760003907B9F49091FE018091FF01981789F043
:10077000E091FE01F0E0E951FD4F80812091FE0102
:1007800030E02F5F3F4F2F7333272093FE0190E01F
:1007900008958FEF9FEF0895089580E090E0089509
:1007A00090E0FC01E255FF4F3491FC01E656FF4F0B
:1007B0002491FC01EA57FF4FE491EE2309F43BC07A
:1007C000332339F1333091F038F43130A9F032303D
:1007D00001F584B58F7D12C0373091F03830A1F02B
:1007E0003430B9F4809180008F7D03C08091800007
:1007F0008F77809380000DC084B58F7784BD09C04A
:100800008091B0008F7703C08091B0008F7D80937E
:10081000B000F0E0EE0FFF1FE859FF4FA591B49133
:100820008FB7F894EC91611103C020952E2301C07D
:100830002E2B2C938FBF08958F929F92AF92BF92D1
:10084000CF92DF92EF92FF926B017C010E94010335
:100850004B015C01C114D104E104F104F1F00E94E8
:100860000103DC01CB0188199909AA09BB09883E5B
:100870009340A105B10570F321E0C21AD108E10847
:10088000F10888EE880E83E0981EA11CB11CC114EB
:10089000D104E104F10419F7DDCFFF90EF90DF9070
:1008A000CF90BF90AF909F908F9008951F920F921E
:1008B0000FB60F9211242F933F938F939F93AF9373
:1008C000BF938091280390912903A0912A03B091AE
:1008D0002B033091270323E0230F2D3720F40196BB
:1008E000A11DB11D05C026E8230F0296A11DB11D53
:1008F000209327038093280390932903A0932A032E
:10090000B0932B0380912C0390912D03A0912E0383
:10091000B0912F030196A11DB11D80932C039093DC
:100920002D03A0932E03B0932F03BF91AF919F91FE
:100930008F913F912F910F900FBE0F901F901895A0
:100940001F920F920FB60F9211242F933F934F9344
:100950005F936F937F938F939F93AF93BF93EF9327
:10096000FF93E0910002F0910102309709F451C029
:10097000968DA685B785858591FF04C09C918923B6
:1009800029F447C09C91892309F043C0A389B48905
:100990009C918589809589238C9386899789019775
:1009A000F1F7608D718DA685B785558538E020E01B
:1009B000CB010197F1F7822F90E095958795282F2D
:1009C0004C91452309F02068315091F7868D81FDC7
:1009D00020958091FF0190E001968F7399273091C7
:1009E000FE01381749F0A091FF01B0E0A951BD4FB9
:1009F0002C938093FF0103C0868D8160868F828D4A
:100A0000938D0197F1F7A389B4899C918589892BEE
:100A10008C93FF91EF91BF91AF919F918F917F91B7
:100A20006F915F914F913F912F910F900FBE0F905B
:100A30001F9018954F925F926F927F928F929F9224
:100A4000AF92BF92CF92DF92EF92FF920F931F93DC
:100A5000CF93DF93CDB7DEB7A1970FB6F894DEBF83
:100A60000FBECDBF6C014B018A0140900202509035
:100A70000302052C000C6608770877FE2BC0E09176
:100A80000402F09105020190F081E02D6DE284E016
:100A900092E0099522273327A9012419350946092F
:100AA000570919A2CE0181967C019AE0492E512C5A
:100AB000612C712CCA01B901A30192010E944D0B56
:100AC000605DF70162937F012115310541055105F4
:100AD00089F71AC0A301920119A2CE0181967C0167
:100AE0008AE0482E512C612C712CCA01B901A30156
:100AF00092010E944D0B605DF70162937F01211509
:100B000031054105510589F7B70184E092E00E9463
:100B10007D0263EE71E084E092E00E947D02F601C6
:100B2000448155816081718184E092E00E948D0052
:100B300062EF71E084E092E00E947D028091E40225
:100B40009091E502881599050CF0A3C0C6010E949A
:100B50009202F80101900020E9F731975F01A01A95
:100B6000B10A09F493C0E12CF12C2FB7F8948091CD
:100B7000280390912903A0912A03B0912B032FBF42
:100B80008093A9029093AA02A093AB02B093AC0207
:100B9000E091A102F091A2020284F385E02D81EAA6
:100BA00092E0099597FD0BC0F801EE0DFF1D208125
:100BB000022E000C330B8217930779F561C02FB713
:100BC000F8948091280390912903A0912A03B09171
:100BD0002B032FBF4091A9025091AA026091AB0252
:100BE0007091AC02841B950BA60BB70B4091A5022C
:100BF0005091A6026091A7027091A80284179507F0
:100C0000A607B70728F28091E4029091E5020196C9
:100C10009093E5028093E40291CFE114F10421F472
:100C200020E030E07901A1CF9701B901615071094D
:100C3000F801E60FF71F4081042E000C550B8417B6
:100C40009507D1F46115710569F3D801F701E61B29
:100C5000F70BE00FF11F40E050E06D9071906714CA
:100C600029F046175707F1F29B01DFCF4F5F5F4F27
:100C70004617570790F3F5CF61157105A9F7D0CF47
:100C800097012F5F3F4F2A153B0561F681E0809366
:100C9000E6028091E6028823C9F064EF71E084E007
:100CA00092E00E947D026BE671E084E092E00E9497
:100CB0007D028091020290910302019690930302BB
:100CC000809302021092E5021092E4028091E60203
:100CD000811114C068EF71E084E092E00E947D020F
:100CE0006BE671E084E092E00E947D0210920302C4
:100CF000109202021092E5021092E4021092E602B3
:100D0000A1960FB6F894DEBF0FBECDBFDF91CF9195
:100D10001F910F91FF90EF90DF90CF90BF90AF9019
:100D20009F908F907F906F905F904F900895CF929B
:100D3000DF92EF92FF92CF93DF931092070210920F
:100D4000060268EEC62E63E0D62EE12CF12CC0928E
:100D50000802D0920902E0920A02F0920B0280E1AE
:100D600091E0909305028093040285EC90E09093CB
:100D700011028093100284EC90E090931302809310
:100D8000120280EC90E0909315028093140281ECA3
:100D900090E0909317028093160282EC90E090937B
:100DA00019028093180286EC90E090931B028093C6
:100DB0001A0210921D0210921E0210921F0210922F
:100DC000200260E371E08EED92E00E9463026CE32A
:100DD00071E088ED92E00E94630265E471E082EDCB
:100DE00092E00E94630261E571E08CEC92E00E9467
:100DF00063026FE571E086EC92E00E94630264E6B4
:100E000071E080EC92E00E9463021092A4021092C2
:100E1000A302C092A502D092A602E092A702F0928D
:100E2000A80282E291E09093A2028093A102109224
:100E3000B8021092B7021092BA021092B902109240
:100E4000BC021092BB021092BE021092BD026091D1
:100E5000BF026E7F6D7F6093BF026695617081E017
:100E600068278BE00E94D003E5EAF0E02491E1E9F5
:100E7000F0E08491882399F090E0880F991FFC019D
:100E8000EE58FF4FA591B491FC01E859FF4F8591B1
:100E900094918FB7F894EC91E22BEC938FBFE5EA35
:100EA000F0E0E491E093B102E1E9F0E0E491F0E0F8
:100EB000EE0FFF1FE859FF4F859194919093B30275
:100EC0008093B202E4EAF0E02491E0E9F0E084915A
:100ED0008823C1F090E0880F991FFC01EE58FF4F66
:100EE000C591D491FC01E859FF4FA591B4919FB7EA
:100EF000F8948881E22FE0958E2388838C91E823F3
:100F0000EC939FBF8091BF0281FD04C061E08AE045
:100F10000E94D0038AE08093AD02E4EAF0E0E4911D
:100F2000E093AE02E0E9F0E0E491F0E0EE0FFF1FA5
:100F3000E458FF4F859194919093B0028093AF0253
:100F4000DF91CF91FF90EF90DF90CF900895CF93F6
:100F5000DF93CDB7DEB7A4970FB6F894DEBF0FBE10
:100F6000CDBF789484B5826084BD84B5816084BD32
:100F700085B5826085BD85B5816085BD80916E0037
:100F8000816080936E001092810080918100826068
:100F900080938100809181008160809381008091A5
:100FA00080008160809380008091B1008460809394
:100FB000B1008091B00081608093B00080917A0090
:100FC000846080937A0080917A00826080937A00B6
:100FD00080917A00816080937A0080917A008068A5
:100FE00080937A001092C100E0911402F0911502F2
:100FF00082E08083E0911002F09111021082E09172
:101000001202F09113028FEC808310921C02E09187
:101010001802F091190286E08083E0911602F091A7
:101020001702808180618083E0911602F09117029F
:10103000808188608083E0911602F09117028081A0
:1010400080688083E0911602F091170280818F7D85
:1010500080831092BC021092BB021092BA021092CE
:10106000B9021092B8021092B7028DE991E0909304
:10107000BE028093BD029091AD02963108F057C038
:101080002DEB30E03093B8022093B7022BE931E02A
:101090003093BA022093B9022CE231E03093BC02C3
:1010A0002093BB0220916800983050F031E09E30D0
:1010B00008F430E081E001C0880F3A95EAF701C0FA
:1010C00084E0822B80936800983038F09E3040F0A6
:1010D000963148F020E030E008C02DE630E005C051
:1010E0002BE630E002C02CE630E03093B5022093CE
:1010F000B402983030F481E001C0880F9A95EAF785
:101100000EC0292F30E09E3018F42850310902C05B
:101110002E50310981E001C0880F2A95EAF78093AB
:10112000B6028091BD029091BE020197F1F78091C5
:10113000BB029091BC02892B49F1E0910002F09131
:10114000010282E0E13AF80709F1309739F0A3890A
:10115000B4899C918589809589238C938091BF0265
:101160008E7F8093BF021092FF011092FE0181EAF0
:1011700092E09093010280930002E091B402F0911A
:10118000B50290818091B602892B808360E177E27D
:1011900080E090E00E941C046EE671E08E010F5F1B
:1011A0001F4FC8010E94630241E751E065E070E013
:1011B000C8010E941A05C8010E94780264E771E024
:1011C000C8010E94630241E751E065E070E0C80198
:1011D0000E941A05C8010E94780260E871E0CE0101
:1011E00043960E9463026EED72E0CE0143960E9428
:1011F00015026EEB71E00E94FC0168ED72E00E9446
:10120000150260EC71E00E94FC01BC01C8010E9463
:10121000490241E751E064E170E0C8010E941A050B
:10122000C8010E947802CE0143960E94780288EE9F
:10123000C82E83E0D82EE12CF12C0E94A10AA70130
:1012400096010E94E40ADC01CB0190930101809396
:1012500000011C8A1B8A1E8A1D8A188E1F8A4AE07A
:10126000B8010E94AF0AF80101900020E9F7319718
:10127000AF01401B510BB801CE0143960E942802DA
:101280006BE871E0C8010E94630262ED72E0C80180
:101290000E9415026EE971E00E94FC0160EC72E0B0
:1012A0000E9415026CE971E00E94FC01BE016D5EB6
:1012B0007F4F0E941502BC01CE014F960E94490249
:1012C000C8010E947802CE0143960E94780281EA0A
:1012D00092E00E949303892B49F081EA92E00E94F8
:1012E000AB03682F84E092E00E94200184E092E04A
:1012F0000E94E900892B49F084E092E00E94C70037
:10130000682F81EA92E00E943F0360EA71E0C80121
:101310000E94630241E751E065E070E0C8010E946D
:101320001A05C8010E9478026CEA71E0CE0143966A
:101330000E9463026CEC72E0CE0143960E9415029B
:1013400062EC71E00E94FC0166EC72E00E94150202
:10135000BC01C8010E94490241E751E06FE070E022
:10136000C8010E941A05C8010E947802CE01439666
:101370000E9478028BA19CA11C8A1B8A1E8A1D8A4E
:10138000188E1F8A4AE0B80104960E94BA0AF80132
:1013900001900020E9F73197AF01401B510BB801D4
:1013A000CE0143960E94280265EC71E0CE01499679
:1013B0000E946302BE016D5E7F4FCE0149960E947E
:1013C0001502BC01C8010E94490243ED51E064E0EE
:1013D00070E0C8010E941A05C8010E947802CE017F
:1013E00049960E947802CE0143960E947802CE016F
:1013F0004F960E9492026CED75E080E090E00E94B2
:101400001C048091020290910302019690930302C2
:101410008093020265ED71E0C8010E94630241E71A
:1014200051E065E070E0C8010E941A05C8010E9401
:101430007802CE014F960E9478020E948901FDCE6B
:1014400082E291E09093A2028093A1028091000237
:1014500090910102815A924071F4E091B402F091AE
:10146000B50290818091B602809589238083109285
:1014700001021092000280EC92E00E94780286EC59
:1014800092E00E9478028CEC92E00E94780282ED59
:1014900092E00E94780288ED92E00E9478028EED40
:1014A00092E00C9478028F929F92AF92BF92CF926B
:1014B000DF92EF92FF92CF93DF93EC016881798105
:1014C0008A819B81611571058105910521F464E292
:1014D00079ED8BE597E02DE133EF41E050E00E949C
:1014E000E40A49015A019B01AC01A7EAB1E40E9458
:1014F000030B6B017C01ACEEB4EFA50194010E94DB
:10150000110BDC01CB018C0D9D1DAE1DBF1DB7FF66
:1015100003C00197A109B04888839983AA83BB833C
:10152000BC01CD019F77DF91CF91FF90EF90DF90CD
:10153000CF90BF90AF909F908F9008950E94530AD4
:10154000089582E091E00E94530A08956093020199
:101550007093030180930401909305010895BB27C4
:101560004A3031F4992322F4BDE2909581959F4F42
:101570000C94BB0ABB27FB015527AA27880F991F8C
:10158000AA1FA41710F0A41B83955051B9F7A05DB2
:10159000AA3308F0A95DA193009779F7B111B1932F
:1015A0001192CB010C94D40ADC01FC01672F7191DC
:1015B0007723E1F7329704C07C916D937083629139
:1015C000AE17BF07C8F30895052E97FB1EF40094CD
:1015D0000E94FB0A57FD07D00E944D0B07FC03D069
:1015E0004EF40C94FB0A50954095309521953F4F51
:1015F0004F4F5F4F089590958095709561957F4FFF
:101600008F4F9F4F08950E946F0BA59F900DB49F21
:10161000900DA49F800D911D11240895B7FF0C9487
:10162000030B0E94030B821B930B08952F923F9292
:101630004F925F926F927F928F929F92AF92BF92E2
:10164000CF92DF92EF92FF920F931F93CF93DF938E
:10165000CDB7DEB7CA1BDB0B0FB6F894DEBF0FBEEB
:10166000CDBF09942A88398848885F846E847D8438
:101670008C849B84AA84B984C884DF80EE80FD803A
:101680000C811B81AA81B981CE0FD11D0FB6F894B0
:10169000DEBF0FBECDBFED010895A1E21A2EAA1B39
:1016A000BB1BFD010DC0AA1FBB1FEE1FFF1FA21712
:1016B000B307E407F50720F0A21BB30BE40BF50B0F
:1016C000661F771F881F991F1A9469F76095709598
:1016D000809590959B01AC01BD01CF010895A29F1B
:1016E000B001B39FC001A39F700D811D1124911DF6
:1016F000B29F700D811D1124911D089597FB072E37
:1017000016F4009407D077FD09D00E94920B07FCD5
:1017100005D03EF4909581959F4F08957095619501
:101720007F4F0895AA1BBB1B51E107C0AA1FBB1F17
:10173000A617B70710F0A61BB70B881F991F5A955D
:10174000A9F780959095BC01CD010895EE0FFF1F7C
:101750000590F491E02D0994CF93DF9382309105A9
:1017600010F482E090E0E0913203F091330320E046
:1017700030E0C0E0D0E0309711F14081518148174E
:101780005907C0F04817590761F482819381209767
:1017900019F09B838A832BC0909333038093320389
:1017A00026C02115310519F04217530718F49A0184
:1017B000BE01DF01EF010280F381E02DDCCF2115B6
:1017C000310509F1281B390B2430310590F41296AC
:1017D0008D919C9113976115710521F0FB01938305
:1017E000828304C09093330380933203FD013296C9
:1017F00044C0FD01E20FF31F819391932250310900
:101800002D933C933AC02091300330913103232B28
:1018100041F4209108013091090130933103209364
:10182000300320910601309107012115310541F463
:101830002DB73EB740910A0150910B01241B350B87
:10184000E0913003F0913103E217F307A0F42E1B6F
:101850003F0B2817390778F0AC014E5F5F4F241714
:10186000350748F04E0F5F1F50933103409330030C
:101870008193919302C0E0E0F0E0CF01DF91CF913E
:1018800008950F931F93CF93DF93009709F48CC0B3
:10189000FC013297138212820091320310913303BC
:1018A0000115110581F420813181820F931F209150
:1018B0003003309131032817390779F5F09331035C
:1018C000E093300371C0D80140E050E0AE17BF078D
:1018D00050F412962D913C911397AD0121153105CD
:1018E00009F1D901F3CF9D01DA01338322836081AD
:1018F0007181860F971F8217930769F4EC01288185
:101900003981260F371F2E5F3F4F318320838A8115
:101910009B8193838283452B29F4F0933303E093D7
:10192000320342C01396FC93EE931297ED01499156
:1019300059919E01240F351FE217F30771F480813E
:101940009181840F951F029611969C938E938281AC
:10195000938113969C938E931297E0E0F0E0D80168
:1019600012968D919C911397009719F0F8018C01B4
:10197000F6CF8D919C9198012E5F3F4F820F931F60
:1019800020913003309131032817390769F43097DB
:1019900029F4109233031092320302C01382128290
:1019A0001093310300933003DF91CF911F910F917A
:1019B0000895A0E0B0E0EFEDFCE00C941A0BEC0110
:1019C000009721F4CB010E94AC0BB8C0FC01E60FDC
:1019D000F71F9C0122503109E217F30708F4ACC04D
:1019E000D9010D911C91119706171707B0F005301A
:1019F000110508F49FC0C80104978617970708F4DB
:101A000099C002501109061B170B019311936D9396
:101A10007C93CF010E94410C8DC05B01A01AB10ADA
:101A20004C01800E911EA0913203B091330340E02F
:101A300050E0E12CF12C109709F44AC0A815B90523
:101A4000D1F56D907C901197630182E0C80ED11C96
:101A5000CA14DB0480F1A3014A195B096A0182E020
:101A6000C80ED11C1296BC9012971396AC91B5E09B
:101A7000CB16D10440F0B282A38351834083D901B5
:101A80006D937C930AC00E5F1F4FC301800F911F9F
:101A9000F90191838083EB2DFA2FE114F10431F0E9
:101AA000D7011396FC93EE93129744C0F09333033F
:101AB000E09332033FC08D919C91119748175907CD
:101AC00008F4AC017D0112960D90BC91A02DB3CF0E
:101AD000809130039091310388159905E1F4461700
:101AE0005707C8F48091060190910701009741F4CF
:101AF0008DB79EB740910A0150910B01841B950B45
:101B0000E817F907C8F4F0933103E0933003F901C3
:101B1000718360830FC0CB010E94AC0B7C010097E6
:101B200059F0A801BE010E94A80DCE010E94410CEF
:101B3000C70104C0CE0102C080E090E0CDB7DEB79F
:101B4000EEE00C94360B81E090E0F8940C94B80D24
:101B5000FB01DC0102C001900D9241505040D8F7CA
:101B60000895FB01DC0101900D920020E1F708953A
:101B700010E0C2E6D0E004C0FE010E94A60B219650
:0A1B8000C336D107C9F7F894FFCF70
:101B8A000100010000000000340380000000000092
:101B9A0020018D00B8006701E900C700DB000000E2
:101BAA0000003F038D00CD033E039303AB032603DE
:101BBA0040504849434F4D4D5F4643003532313816
:101BCA00303336320048656C6C6F5F576F726C64E5
:101BDA00003139322E3136382E322E31303100383A
:101BEA00303830006669656C6431000D0A00415472
:101BFA00004F4B0041542B43574D4F44453D310054
:101C0A0041542B43574A41503D2200474554202F07
:101C1A00746573743F6170695F6B65793D00260076
:101C2A0041542B4349504D55583D310041542B43A3
:101C3A00495053544152543D302C22544350222C83
:101C4A002200222C0041542B43495053454E443D17
:101C5A00302C003E0041542B434950434C4F5345CE
:101C6A003D30002E20617420636F6D6D616E6420BB
:0E1C7A003D3E20004F5949004661696C000054
:00000001FF
