:100000000C9463000C948B000C948B000C949E0356
:100010000C949E030C949E030C948B000C948B0008
:100020000C948B000C948B000C948B000C948B0024
:100030000C948B000C948B000C948B000C948B0014
:100040000C9454030C948B000C9422030C94FC022B
:100050000C948B000C948B000C948B000C948B00F4
:100060000C948B000C948B0000000008000201002F
:100070000003040700000000000000000000000072
:10008000250028002B0000000000240027002A0083
:1000900000000000230026002900040404040404D6
:1000A0000404020202020202030303030303010227
:1000B00004081020408001020408102001020408F6
:1000C00010201804950611241FBECFEFD8E0DEBF24
:1000D000CDBF11E0A0E0B1E0E2E2F4E102C00590A2
:1000E0000D92A037B107D9F722E0A0E7B1E001C037
:1000F0001D92A13AB207E1F710E0C2E6D0E004C0D9
:100100002197FE010E94F207C136D107C9F70E946C
:1001100028050C94040A0C940000CF92DF92EF9211
:10012000FF920F931F93CF93DF936C017A018B01A2
:10013000C0E0D0E0CE15DF0589F0D8016D918D01CA
:10014000D601ED91FC910190F081E02DC601099559
:10015000892B11F47E0102C02196ECCFC701DF91FB
:10016000CF911F910F91FF90EF90DF90CF90089566
:10017000FC01538D448D252F30E0842F90E0821BAD
:10018000930B541710F0CF96089501970895FC0132
:10019000918D828D981761F0828DDF01A80FB11DBE
:1001A0005D968C91928D9F5F9F73928F90E00895E2
:1001B0008FEF9FEF0895FC01918D828D981731F09C
:1001C000828DE80FF11D858D90E008958FEF9FEFF0
:1001D0000895FC01918D228D892F90E0805C9F4FC6
:1001E000821B91098F73992708958DEB91E00E94EE
:1001F000E90021E0892B09F420E0822F0895FC0119
:10020000848DDF01A80FB11DA35ABF4F2C91848D9F
:1002100090E001968F739927848FA689B7892C93D4
:10022000A089B1898C9180648C93938D848D98136F
:1002300006C00288F389E02D80818F7D8083089538
:10024000EF92FF920F931F93CF93DF93EC0181E026
:10025000888F9B8D8C8D981305C0E889F9898081E2
:1002600085FD24C0F62E0B8D10E00F5F1F4F0F731E
:100270001127E02E8C8DE8120CC00FB607FCFACFC8
:10028000E889F989808185FFF5CFCE010E94FF00C2
:10029000F1CF8B8DFE01E80FF11DE35AFF4FF08285
:1002A0000B8FEA89FB898081806207C0EE89FF8914
:1002B0006083E889F98980818064808381E090E0AF
:1002C000DF91CF911F910F91FF90EF900895CF9301
:1002D000DF93EC01888D8823C9F0EA89FB8980814E
:1002E00085FD05C0A889B9898C9186FD0FC00FB620
:1002F00007FCF5CF808185FFF2CFA889B9898C9161
:1003000085FFEDCFCE010E94FF00E7CFDF91CF91B7
:10031000089580E090E0892B29F00E94F50081117A
:100320000C940000089590E0FC01E859FF4F3491CF
:10033000FC01E255FF4F2491FC01E656FF4FE4918A
:10034000EE2309F43BC0332339F1333091F038F414
:100350003130A9F0323001F584B58F7D12C03730CD
:1003600091F03830A1F03430B9F4809180008F7D65
:1003700003C0809180008F77809380000DC084B58A
:100380008F7784BD09C08091B0008F7703C08091C2
:10039000B0008F7D8093B000F0E0EE0FFF1FE458B7
:1003A000FF4FA591B4918FB7F894EC91611103C000
:1003B00020952E2301C02E2B2C938FBF08953FB77D
:1003C000F8948091B5019091B601A091B701B091D8
:1003D000B80126B5A89B05C02F3F19F00196A11DB5
:1003E000B11D3FBFBA2FA92F982F8827820F911DCB
:1003F000A11DB11DBC01CD0142E0660F771F881F12
:10040000991F4A95D1F708952091BB013091BC0105
:100410002817390771F49091B9018091BA019817A2
:1004200041F0E091B901F0E0E059FE4F808190E0A9
:1004300008958FEF9FEF089508951F93CF93DF9353
:10044000DC015C962D913C915D972115310539F4C5
:1004500081E090E013969C938E9312973DC0519645
:10046000ED91FC91529750969C915097892F8095D1
:100470001FB75E964C915E9741FB772770F941FD5F
:100480006095F8944081772311F0492B01C04823EF
:100490004083E9012197F1F748E0508160FF02C0F5
:1004A000592B01C058235083E9012197F1F7669534
:1004B000415099F7772321F090818923808303C0ED
:1004C0008081982B90831FBF5C968D919C915D9746
:1004D0000197F1F721E030E0C901DF91CF911F9141
:1004E00008952091BB013091BC012817390771F4A0
:1004F0008091BA012091B90190E0805C9F4F821BEE
:10050000910960E470E00E94CA07089580E090E0DD
:1005100008952091BB013091BC0128173907B9F427
:100520009091B9018091BA01981789F0E091B901D1
:10053000F0E0E059FE4F80812091B90130E02F5F5B
:100540003F4F2F7333272093B90190E008958FEF29
:100550009FEF0895089580E090E008950E94EF09CC
:10056000EF92FF920F931F93CF93DF93EC011982C9
:1005700018821B821A821D821C8261157105A9F1E5
:100580007B01FB0101900020E9F731978F01061BE9
:10059000170BB8016F5F7F4F80E090E00E94250944
:1005A000009759F0998388831B830A832C813D81AE
:1005B000232B81F4FC0110820DC088819981009762
:1005C00011F00E948D08198218821D821C821B82E4
:1005D0001A820BC01D830C83B701DF91CF911F914D
:1005E0000F91FF90EF900C94FD09DF91CF911F9137
:1005F0000F91FF90EF9008951F920F920FB60F92F8
:1006000011242F933F934F935F936F937F938F9317
:100610009F93AF93BF93EF93FF938DEB91E00E9475
:10062000FF00FF91EF91BF91AF919F918F917F91CB
:100630006F915F914F913F912F910F900FBE0F904F
:100640001F9018951F920F920FB60F9211242F939F
:100650008F939F93EF93FF93E091CD01F091CE01A3
:100660008081E091D301F091D40182FD12C090818C
:100670008091D6018F5F8F732091D701821751F03F
:10068000E091D601F0E0E354FE4F958F8093D601C0
:1006900001C08081FF91EF919F918F912F910F90D9
:1006A0000FBE0F901F9018951F920F920FB60F92CA
:1006B00011242F933F938F939F93AF93BF93809178
:1006C000B1019091B201A091B301B091B401309108
:1006D000B00123E0230F2D3720F40196A11DB11D99
:1006E00005C026E8230F0296A11DB11D2093B0017D
:1006F0008093B1019093B201A093B301B093B40180
:100700008091B5019091B601A091B701B091B80167
:100710000196A11DB11D8093B5019093B601A093E0
:10072000B701B093B801BF91AF919F918F913F9165
:100730002F910F900FBE0F901F9018951F920F9240
:100740000FB60F9211242F933F934F935F936F93A4
:100750007F938F939F93AF93BF93EF93FF93E0911A
:10076000BB01F091BC01309709F451C0968DA6856C
:10077000B785858591FF04C09C91892329F447C0E2
:100780009C91892309F043C0A389B4899C918589F0
:10079000809589238C93868997890197F1F7608DDD
:1007A000718DA685B785558538E020E0CB0101978E
:1007B000F1F7822F90E095958795282F4C9145234E
:1007C00009F02068315091F7868D81FD2095809148
:1007D000BA0190E001968F7399273091B9013817CB
:1007E00049F0A091BA01B0E0A059BE4F2C9380937C
:1007F000BA0103C0868D8160868F828D938D0197AB
:10080000F1F7A389B4899C918589892B8C93FF91F9
:10081000EF91BF91AF919F918F917F916F915F9178
:100820004F913F912F910F900FBE0F901F901895F1
:10083000CF92DF92EF92FF92CF93DF931092C0019D
:100840001092BF0168EEC62E63E0D62EE12CF12C8B
:10085000C092C101D092C201E092C301F092C401E2
:1008600080E191E09093BE018093BD0185EC90E022
:100870009093CA018093C90184EC90E09093CC01DD
:100880008093CB0180EC90E09093CE018093CD01DA
:1008900081EC90E09093D0018093CF0182EC90E0C6
:1008A0009093D2018093D10186EC90E09093D40193
:1008B0008093D3011092D6011092D7011092D801E3
:1008C0001092D90160E371E087E992E00E94B002E2
:1008D0006CE371E081E992E00E94B00265E471E0AE
:1008E0008BE892E00E94B00266E571E085E892E054
:1008F0000E94B00264E671E08FE792E00E94B002CD
:1009000069E671E089E792E00E94B00210925D0210
:1009100010925C02C0925E02D0925F02E09260028E
:10092000F092610282E291E090935B0280935A021E
:100930001092710210927002109273021092720261
:100940001092750210927402109277021092760241
:10095000609178026E7F6D7F60937802669561701A
:1009600081E068278BE00E949301E9EBF0E024919D
:10097000E5EAF0E08491882399F090E0880F991FD0
:10098000FC01EA57FF4FA591B491FC01E458FF4FD9
:10099000859194918FB7F894EC91E22BEC938FBFF3
:1009A000E9EBF0E0E491E0936A02E5EAF0E0E4913B
:1009B000F0E0EE0FFF1FE458FF4F85919491909364
:1009C0006C0280936B02E8EBF0E02491E4EAF0E043
:1009D00084918823C1F090E0880F991FFC01EA57A9
:1009E000FF4FC591D491FC01E458FF4FA591B491FC
:1009F0009FB7F8948881E22FE0958E2388838C91AD
:100A0000E823EC939FBF8091780281FD04C061E0F0
:100A10008AE00E9493018AE080936602E8EBF0E0AE
:100A2000E491E0936702E4EAF0E0E491F0E0EE0F95
:100A3000FF1FE057FF4F8591949190936902809337
:100A40006802DF91CF91FF90EF90DF90CF900895F3
:100A5000789484B5826084BD84B5816084BD85B599
:100A6000826085BD85B5816085BD80916E008160A5
:100A700080936E001092810080918100826080934B
:100A8000810080918100816080938100809180004D
:100A90008160809380008091B10084608093B10078
:100AA0008091B00081608093B00080917A00846072
:100AB00080937A0080917A00826080937A0080919E
:100AC0007A00816080937A0080917A0080688093B8
:100AD0007A001092C100E091CD01F091CE0182E048
:100AE0008083E091C901F091CA011082E091CB01AD
:100AF000F091CC018FEC80831092D501E091D1016F
:100B0000F091D20186E08083E091CF01F091D00195
:100B1000808180618083E091CF01F091D00180815C
:100B200088608083E091CF01F091D001808180685E
:100B30008083E091CF01F091D00180818F7D80830F
:100B40001092750210927402109273021092720247
:100B500010927102109270028DE991E090937702E9
:100B60008093760290916602963108F057C02DEB83
:100B700030E030937102209370022BE931E0309322
:100B80007302209372022CE231E0309375022093BD
:100B9000740220916800983050F031E09E3008F4E3
:100BA00030E081E001C0880F3A95EAF701C084E0A7
:100BB000822B80936800983038F09E3040F0963158
:100BC00048F020E030E008C02DE630E005C02BE61C
:100BD00030E002C02CE630E030936E0220936D02CC
:100BE000983030F481E001C0880F9A95EAF70EC082
:100BF000292F30E09E3018F42850310902C02E50C1
:100C0000310981E001C0880F2A95EAF780936F02CD
:100C100080917602909177020197F1F780917402AA
:100C200090917502892B49F1E091BB01F091BC01D3
:100C300022E0EA35F20709F1309739F0A389B48947
:100C40009C918589809589238C93809178028E7FF1
:100C5000809378021092BA011092B9018AE592E06D
:100C60009093BC018093BB01E0916D02F0916E0204
:100C7000908180916F02892B80830E94DF014B015C
:100C80005C0190E1C92E97E2D92EE12CF12C0E9453
:100C9000DF01DC01CB0188199909AA09BB09883E4B
:100CA0009340A105B10558F081E0C81AD108E108C8
:100CB000F10828EE820E23E0921EA11CB11CC11483
:100CC000D104E104F10419F788EEC82E83E0D82E90
:100CD000E12CF12C0E942207A70196010E94300707
:100CE00070930101609300018AE592E00E94710215
:100CF000892B49F08AE592E00E948902682F8DEBEA
:100D000091E00E9420018DEB91E00E94E900892B87
:100D100049F08DEB91E00E94C700682F8AE592E0D0
:100D20000E941D020E948901D5CF82E291E090933A
:100D30005B0280935A028091BB019091BC018A555D
:100D4000924071F4E0916D02F0916E029081809179
:100D50006F028095892380831092BC011092BB01A1
:100D60008091790290917A020E948D0880917F0291
:100D7000909180020E948D08809185029091860258
:100D80000E948D0880918B0290918C020E948D08A8
:100D900080919102909192020E948D088091970219
:100DA000909198020C948D088F929F92AF92BF926F
:100DB000CF92DF92EF92FF92CF93DF93EC016881A5
:100DC00079818A819B81611571058105910521F4E5
:100DD00064E279ED8BE597E02DE133EF41E050E0FF
:100DE0000E94300749015A019B01AC01A7EAB1E416
:100DF0000E944F076B017C01ACEEB4EFA50194019A
:100E00000E945D07DC01CB018C0D9D1DAE1DBF1D39
:100E1000B7FF03C00197A109B04888839983AA83CB
:100E2000BB83BC01CD019F77DF91CF91FF90EF9005
:100E3000DF90CF90BF90AF909F908F9008950E94C9
:100E4000D406089582E091E00E94D406089560934C
:100E500002017093030180930401909305010895AA
:100E6000052E97FB1EF400940E94470757FD07D0FC
:100E70000E94990707FC03D04EF40C944707509545
:100E80004095309521953F4F4F4F5F4F0895909576
:100E90008095709561957F4F8F4F9F4F08950E9469
:100EA000BB07A59F900DB49F900DA49F800D911D31
:100EB00011240895B7FF0C944F070E944F07821B1F
:100EC000930B08952F923F924F925F926F927F9271
:100ED0008F929F92AF92BF92CF92DF92EF92FF924A
:100EE0000F931F93CF93DF93CDB7DEB7CA1BDB0BF6
:100EF0000FB6F894DEBF0FBECDBF09942A8839889B
:100F000048885F846E847D848C849B84AA84B984A1
:100F1000C884DF80EE80FD800C811B81AA81B981AD
:100F2000CE0FD11D0FB6F894DEBF0FBECDBFED01C1
:100F30000895A1E21A2EAA1BBB1BFD010DC0AA1F1A
:100F4000BB1FEE1FFF1FA217B307E407F50720F032
:100F5000A21BB30BE40BF50B661F771F881F991FAD
:100F60001A9469F760957095809590959B01AC01F6
:100F7000BD01CF010895A29FB001B39FC001A39FFF
:100F8000700D811D1124911DB29F700D811D1124C2
:100F9000911D089597FB072E16F4009407D077FD56
:100FA00009D00E94DE0707FC05D03EF4909581959C
:100FB0009F4F0895709561957F4F0895AA1BBB1BA5
:100FC00051E107C0AA1FBB1FA617B70710F0A61B49
:100FD000B70B881F991F5A95A9F780959095BC016A
:100FE000CD010895EE0FFF1F0590F491E02D0994B7
:100FF000CF93DF938230910510F482E090E0E0918E
:101000009F02F091A00220E030E0C0E0D0E03097F5
:1010100011F14081518148175907C0F0481759070D
:1010200061F482819381209719F09B838A832BC07E
:101030009093A00280939F0226C02115310519F0DC
:101040004217530718F49A01BE01DF01EF01028035
:10105000F381E02DDCCF2115310509F1281B390B77
:101060002430310590F412968D919C91139761155F
:10107000710521F0FB019383828304C09093A00249
:1010800080939F02FD01329644C0FD01E20FF31FE1
:1010900081939193225031092D933C933AC0209132
:1010A0009D0230919E02232B41F420910801309142
:1010B000090130939E0220939D02209106013091F8
:1010C00007012115310541F42DB73EB740910A01C2
:1010D00050910B01241B350BE0919D02F0919E0273
:1010E000E217F307A0F42E1B3F0B2817390778F0FF
:1010F000AC014E5F5F4F2417350748F04E0F5F1F5E
:1011000050939E0240939D028193919302C0E0E030
:10111000F0E0CF01DF91CF9108950F931F93CF930C
:10112000DF93009709F48CC0FC013297138212827E
:1011300000919F021091A0020115110581F42081F8
:101140003181820F931F20919D0230919E022817BA
:10115000390779F5F0939E02E0939D0271C0D801A2
:1011600040E050E0AE17BF0750F412962D913C912D
:101170001397AD012115310509F1D901F3CF9D0177
:10118000DA013383228360817181860F971F821772
:10119000930769F4EC0128813981260F371F2E5FF0
:1011A0003F4F318320838A819B8193838283452BA8
:1011B00029F4F093A002E0939F0242C01396FC939F
:1011C000EE931297ED01499159919E01240F351F1D
:1011D000E217F30771F480819181840F951F0296C5
:1011E00011969C938E938281938113969C938E93F8
:1011F0001297E0E0F0E0D80112968D919C91139740
:10120000009719F0F8018C01F6CF8D919C9198010F
:101210002E5F3F4F820F931F20919D0230919E02BF
:101220002817390769F4309729F41092A002109218
:101230009F0202C01382128210939E0200939D02AD
:10124000DF91CF911F910F910895A0E0B0E0EBE204
:10125000F9E00C946607EC01009721F4CB010E94A1
:10126000F807B8C0FC01E60FF71F9C0122503109B6
:10127000E217F30708F4ACC0D9010D911C91119746
:1012800006171707B0F00530110508F49FC0C80114
:1012900004978617970708F499C002501109061B96
:1012A000170B019311936D937C93CF010E948D08CE
:1012B0008DC05B01A01AB10A4C01800E911EA09155
:1012C0009F02B091A00240E050E0E12CF12C109779
:1012D00009F44AC0A815B905D1F56D907C90119715
:1012E000630182E0C80ED11CCA14DB0480F1A301A3
:1012F0004A195B096A0182E0C80ED11C1296BC90A3
:1013000012971396AC91B5E0CB16D10440F0B2829F
:10131000A38351834083D9016D937C930AC00E5FF0
:101320001F4FC301800F911FF90191838083EB2D23
:10133000FA2FE114F10431F0D7011396FC93EE93E8
:10134000129744C0F093A002E0939F023FC08D919A
:101350009C9111974817590708F4AC017D0112962A
:101360000D90BC91A02DB3CF80919D0290919E02D3
:1013700088159905E1F446175707C8F480910601CE
:1013800090910701009741F48DB79EB740910A01F3
:1013900050910B01841B950BE817F907C8F4F093E3
:1013A0009E02E0939D02F901718360830FC0CB011F
:1013B0000E94F8077C01009759F0A801BE010E9425
:1013C000F409CE010E948D08C70104C0CE0102C0FD
:1013D00080E090E0CDB7DEB7EEE00C94820781E0CC
:1013E00090E0F8940C94040AFB01DC0102C0019027
:1013F0000D9241505040D8F70895FB01DC01019057
:101400000D920020E1F7089510E0C2E6D0E004C09C
:10141000FE010E94F2072196C336D107C9F7F8945E
:02142000FFCFFC
:101422000100010000000000A10280000000000095
:1014320020018D00B8006701E900C700DB00000051
:1014420000001D028D00AB021C027102890204021F
:1014520040504849434F4D4D5F4643003532313885
:10146200303336320031565847503947564E414B89
:101472004144304537003139322E3136382E322E42
:101482003130310038303830006669656C643100C3
:00000001FF
