:100000000C9436000C945E000C945E000C945E0020
:100010000C945E000C945E000C945E000C945E00E8
:100020000C945E000C945E000C945E000C945E00D8
:100030000C945E000C945E000C945E000C945E00C8
:100040000C94D7020C945E000C9447030C9421038B
:100050000C945E000C945E000C945E000C945E00A8
:100060000C945E000C945E007903820411241FBE80
:10007000CFEFD8E0DEBFCDBF21E0AAE2B1E001C002
:100080001D92AB3DB207E1F711E0A0E0B1E0ECEB6F
:10009000FDE002C005900D92AA32B107D9F710E039
:1000A000C5E3D0E004C02197FE010E94BF04C43321
:1000B000D107C9F70E94AB030C94D1060C94000041
:1000C0000895CF92DF92EF92FF920F931F93CF93F9
:1000D000DF936C017A018B01C0E0D0E0CE15DF0523
:1000E00089F0D8016D918D01D601ED91FC910190BF
:1000F000F081E02DC6010995892B11F47E0102C023
:100100002196ECCFC701DF91CF911F910F91FF9006
:10011000EF90DF90CF900895089580E090E00895EB
:10012000FC01538D448D252F30E0842F90E0821BFD
:10013000930B541710F0CF96089501970895FC0182
:10014000918D828D981761F0828DDF01A80FB11D0E
:100150005D968C91928D9F5F9F73928F90E0089532
:100160008FEF9FEF0895FC01918D828D981731F0EC
:10017000828DE80FF11D858D90E008958FEF9FEF40
:100180000895FC01918D228D892F90E0805C9F4F16
:10019000821B91098F739927089584E391E00E944F
:1001A000C10021E0892B09F420E0822F0895FC0191
:1001B000848DDF01A80FB11DA35ABF4F2C91848DF0
:1001C00090E001968F739927848FA689B7892C9325
:1001D000A089B1898C9180648C93938D848D9813C0
:1001E00006C00288F389E02D80818F7D8083089589
:1001F000EF92FF920F931F93CF93DF93EC0181E077
:10020000888F9B8D8C8D981305C0E889F989808132
:1002100085FD24C0F62E0B8D10E00F5F1F4F0F736E
:100220001127E02E8C8DE8120CC00FB607FCFACF18
:10023000E889F989808185FFF5CFCE010E94D7003A
:10024000F1CF8B8DFE01E80FF11DE35AFF4FF082D5
:100250000B8FEA89FB898081806207C0EE89FF8964
:100260006083E889F98980818064808381E090E0FF
:10027000DF91CF911F910F91FF90EF900895CF9351
:10028000DF93EC01888D8823C9F0EA89FB8980819E
:1002900085FD05C0A889B9898C9186FD0FC00FB670
:1002A00007FCF5CF808185FFF2CFA889B9898C91B1
:1002B00085FFEDCFCE010E94D700E7CFDF91CF9130
:1002C0000895CF93DF93EC0188819981009711F015
:1002D0000E945A05198218821D821C821B821A8272
:1002E000DF91CF9108950E94BC060F931F93CF9387
:1002F000DF93EC0188819981009729F02A813B8165
:100300002617370788F48B016F5F7F4F0E94F20535
:10031000009761F0998388831B830A832C813D8138
:10032000232B11F4FC01108281E001C080E0DF91F9
:10033000CF911F910F910895EF92FF920F931F930A
:10034000CF93DF93EC01198218821B821A821D82DF
:100350001C826115710521F18B01FB0101900020C8
:10036000E9F731977F01E61AF70AB7010E94750194
:10037000811109C0CE01DF91CF911F910F91FF90A4
:10038000EF900C946101FD82EC82B8018881998123
:10039000DF91CF911F910F91FF90EF900C94CA06BF
:1003A000DF91CF911F910F91FF90EF900895EF9201
:1003B000FF920F931F93CF93DF938C017B01611505
:1003C000710569F0FB0101900020E9F73197EF0119
:1003D000C61BD70BBE010E947501811104C0C80164
:1003E0000E94610108C0F801D583C483B7018081F0
:1003F00091810E94CA06C801DF91CF911F910F9190
:10040000FF90EF900895EF92FF920F931F93CF9379
:10041000DF9300D000D000D0CDB7DEB7FF24F39437
:1004200084E391E00E94C100892B09F4ADC084E30C
:1004300091E00E949F008A3009F082C08091D5012E
:100440009091D601009709F478C08C0101501109F0
:100450000817190708F071C08091D1019091D2015D
:10046000009709F46AC0FC01E00FF11F80818D3014
:1004700009F063C068E271E0CE0101960E949C0120
:100480008091D5019091D6010097E1F080179107F6
:1004900008F48C01E091D101F091D201E00FF11F3D
:1004A000E08010826091D1017091D201CE0101965D
:1004B0000E94D7018091D1019091D201FC01E00FFF
:1004C000F11FE0828091D1019091D2010097C9F093
:1004D00069817A816115710591F04091D301509144
:1004E000D4012D813E814217530748F00E94CA066D
:1004F0008D819E819093D6018093D50118C00E9472
:100500005A0589819A819093D2018093D1018B8180
:100510009C819093D4018093D3018D819E8190938F
:10052000D6018093D5011A8219821C821B821E82F9
:100530001D8289819A810E945A05F0922A0170CF0A
:1005400089831A820091D5011091D6010F5F1F4F48
:10055000B80181ED91E00E947501882309F460CF14
:100560002091D1013091D2018091D5019091D60195
:10057000BE016F5F7F4F820F931F0E94CA061093C8
:10058000D6010093D5014CCF26960FB6F894DEBF66
:100590000FBECDBFDF91CF911F910F91FF90EF90D4
:1005A00008950E94CD0081110C94030208951F92BA
:1005B0000F920FB60F9211242F933F938F939F9317
:1005C000AF93BF938091300190913101A09132019E
:1005D000B091330130912F0123E0230F2D3720F408
:1005E0000196A11DB11D05C026E8230F0296A11D8D
:1005F000B11D20932F018093300190933101A0937E
:100600003201B093330180912B0190912C01A09184
:100610002D01B0912E010196A11DB11D80932B01DA
:1006200090932C01A0932D01B0932E01BF91AF9117
:100630009F918F913F912F910F900FBE0F901F9020
:1006400018951F920F920FB60F9211242F933F937C
:100650004F935F936F937F938F939F93AF93BF93CA
:10066000EF93FF9384E391E00E94D700FF91EF9115
:10067000BF91AF919F918F917F916F915F914F91BA
:100680003F912F910F900FBE0F901F9018951F92C2
:100690000F920FB60F9211242F938F939F93EF9386
:1006A000FF93E0914401F09145018081E0914A017E
:1006B000F0914B0182FD12C0908180914D018F5FBE
:1006C0008F7320914E01821751F0E0914D01F0E0BF
:1006D000EC5CFE4F958F80934D0101C08081FF91AE
:1006E000EF919F918F912F910F900FBE0F901F90C0
:1006F0001895E4E3F1E01382128288EE93E0A0E023
:10070000B0E084839583A683B7838AE091E09183E8
:10071000808385EC90E09587848784EC90E09787D0
:10072000868780EC90E0918B808B81EC90E0938BBE
:10073000828B82EC90E0958B848B86EC90E0978B9B
:10074000868B118E128E138E148E68E271E081ED0D
:1007500091E00C949C01CF93DF9300D000D000D0A7
:10076000CDB7DEB7789484B5826084BD84B58160EE
:1007700084BD85B5826085BD85B5816085BD80916C
:100780006E00816080936E001092810080918100E4
:1007900082608093810080918100816080938100DC
:1007A000809180008160809380008091B10084609E
:1007B0008093B1008091B00081608093B0008091FF
:1007C0007A00846080937A0080917A0082608093BE
:1007D0007A0080917A00816080937A0080917A001B
:1007E000806880937A001092C100E0914401F091FA
:1007F000450182E08083E0914001F0914101108247
:10080000E0914201F09143018FEC808310924C0102
:10081000E0914801F091490186E08083E091460132
:10082000F0914701808180618083E0914601F091E1
:100830004701808188608083E0914601F091470103
:10084000808180688083E0914601F091470180813A
:100850008F7D808368EC70E081ED91E00E947501EE
:1008600080912A01882309F445C068E171E0CE0136
:1008700001960E949C018091D5019091D601E09053
:10088000D101F090D2010D811E81E114F104A9F192
:100890000097A1F0080F191FB801CE0101960E9420
:1008A0007501882351F129813A818D819E81B7019B
:1008B000820F931F0E94CA061E830D834D815E81A5
:1008C00069817A8184E391E00E94610042E050E016
:1008D00066E271E084E391E00E94610089819A817F
:1008E0000E945A0568E271E081ED91E00E94D70113
:1008F00010922A010E94D102B3CFCE0101960E942C
:100900006101DCCF8091D1019091D2010C945A0504
:100910002F923F924F925F926F927F928F929F920F
:10092000AF92BF92CF92DF92EF92FF920F931F93FD
:10093000CF93DF93CDB7DEB7CA1BDB0B0FB6F894AE
:10094000DEBF0FBECDBF09942A88398848885F84EE
:100950006E847D848C849B84AA84B984C884DF805F
:10096000EE80FD800C811B81AA81B981CE0FD11D43
:100970000FB6F894DEBF0FBECDBFED010895EE0FA8
:10098000FF1F0590F491E02D0994CF93DF938230FF
:10099000910510F482E090E0E091D901F091DA0144
:1009A00020E030E0C0E0D0E0309711F1408151818B
:1009B00048175907C0F04817590761F4828193819D
:1009C000209719F09B838A832BC09093DA01809340
:1009D000D90126C02115310519F04217530718F423
:1009E0009A01BE01DF01EF010280F381E02DDCCF2F
:1009F0002115310509F1281B390B2430310590F4FC
:100A000012968D919C9113976115710521F0FB0150
:100A10009383828304C09093DA018093D901FD010E
:100A2000329644C0FD01E20FF31F8193919322504F
:100A300031092D933C933AC02091D7013091D801D0
:100A4000232B41F420910201309103013093D8010E
:100A50002093D7012091000130910101211531052A
:100A600041F42DB73EB74091040150910501241B7C
:100A7000350BE091D701F091D801E217F307A0F40C
:100A80002E1B3F0B2817390778F0AC014E5F5F4FE4
:100A90002417350748F04E0F5F1F5093D80140933D
:100AA000D7018193919302C0E0E0F0E0CF01DF91A4
:100AB000CF9108950F931F93CF93DF93009709F47D
:100AC0008CC0FC013297138212820091D9011091DF
:100AD000DA010115110581F420813181820F931F04
:100AE0002091D7013091D8012817390779F5F09373
:100AF000D801E093D70171C0D80140E050E0AE17B3
:100B0000BF0750F412962D913C911397AD0121151A
:100B1000310509F1D901F3CF9D01DA013383228335
:100B200060817181860F971F8217930769F4EC012A
:100B300028813981260F371F2E5F3F4F3183208355
:100B40008A819B8193838283452B29F4F093DA0178
:100B5000E093D90142C01396FC93EE931297ED01F6
:100B6000499159919E01240F351FE217F30771F443
:100B700080819181840F951F029611969C938E938C
:100B80008281938113969C938E931297E0E0F0E01C
:100B9000D80112968D919C911397009719F0F80146
:100BA0008C01F6CF8D919C9198012E5F3F4F820F63
:100BB000931F2091D7013091D8012817390769F484
:100BC000309729F41092DA011092D90102C01382F1
:100BD00012821093D8010093D701DF91CF911F911A
:100BE0000F910895A0E0B0E0E8EFF5E00C948C04DC
:100BF000EC01009721F4CB010E94C504B8C0FC01B0
:100C0000E60FF71F9C0122503109E217F30708F4A1
:100C1000ACC0D9010D911C91119706171707B0F0C0
:100C20000530110508F49FC0C8010497861797077F
:100C300008F499C002501109061B170B0193119378
:100C40006D937C93CF010E945A058DC05B01A01A61
:100C5000B10A4C01800E911EA091D901B091DA0128
:100C600040E050E0E12CF12C109709F44AC0A8159F
:100C7000B905D1F56D907C901197630182E0C80EA3
:100C8000D11CCA14DB0480F1A3014A195B096A0173
:100C900082E0C80ED11C1296BC9012971396AC91AC
:100CA000B5E0CB16D10440F0B282A38351834083D8
:100CB000D9016D937C930AC00E5F1F4FC301800F53
:100CC000911FF90191838083EB2DFA2FE114F10438
:100CD00031F0D7011396FC93EE93129744C0F09332
:100CE000DA01E093D9013FC08D919C91119748178B
:100CF000590708F4AC017D0112960D90BC91A02D0E
:100D0000B3CF8091D7019091D80188159905E1F46E
:100D100046175707C8F48091000190910101009790
:100D200041F48DB79EB74091040150910501841B99
:100D3000950BE817F907C8F4F093D801E093D701B1
:100D4000F901718360830FC0CB010E94C5047C014F
:100D5000009759F0A801BE010E94C106CE010E9471
:100D60005A05C70104C0CE0102C080E090E0CDB7B3
:100D7000DEB7EEE00C94A80481E090E0F8940C94C7
:100D8000D106FB01DC0102C001900D9241505040A0
:100D9000D8F70895FB01DC0101900D920020E1F7E6
:100DA000089510E0C5E3D0E004C0FE010E94BF0436
:0C0DB0002196C633D107C9F7F894FFCF95
:100DBC000000DB01800000000000F80061009000E2
:100DCC003F01C1009F00B30066726F6D20417264D9
:0A0DDC0075696E6F3A000D0A000001
:00000001FF
