:100000000C945E000C9486000C9486000C94860080
:100010000C9486000C9486000C9486000C94860048
:100020000C9486000C9486000C9486000C94860038
:100030000C9486000C9486000C9486000C94860028
:100040000C9447030C9486000C94B7030C94910312
:100050000C9486000C9486000C9486000C94860008
:100060000C9486000C9486000000000024002700F9
:100070002A0000000000250028002B0004040404CE
:100080000404040402020202020203030303030342
:10009000010204081020408001020408102001021F
:1000A00004081020000000080002010000030407FB
:1000B0000000000000000000E9032D0511241FBE10
:1000C000CFEFD8E0DEBFCDBF21E0A8E3B1E001C0B3
:1000D0001D92A93EB207E1F711E0A0E0B1E0E4E231
:1000E000FFE002C005900D92A833B107D9F710E0E8
:1000F000CDE5D0E004C02197FE010E946A05CC3511
:10010000D107C9F70E941B040C9485070C940000CA
:10011000E6EAF0E02491E2E9F0E09491EEE7F0E025
:10012000E491EE2309F43BC0222339F1233091F00E
:1001300038F42130A9F0223001F524B52F7D12C00A
:10014000273091F02830A1F02430B9F420918000BC
:100150002F7D03C0209180002F77209380000DC059
:1001600024B52F7724BD09C02091B0002F7703C09C
:100170002091B0002F7D2093B000F0E0EE0FFF1F24
:10018000EE58FF4FA591B4912FB7F894EC918111DF
:1001900003C090959E2301C09E2B9C932FBF089572
:1001A0000895CF92DF92EF92FF920F931F93CF9318
:1001B000DF936C017A018B01C0E0D0E0CE15DF0542
:1001C00089F0D8016D918D01D601ED91FC910190DE
:1001D000F081E02DC6010995892B11F47E0102C042
:1001E0002196ECCFC701DF91CF911F910F91FF9026
:1001F000EF90DF90CF900895089580E090E008950B
:10020000FC01538D448D252F30E0842F90E0821B1C
:10021000930B541710F0CF96089501970895FC01A1
:10022000918D828D981761F0828DDF01A80FB11D2D
:100230005D968C91928D9F5F9F73928F90E0089551
:100240008FEF9FEF0895FC01918D828D981731F00B
:10025000828DE80FF11D858D90E008958FEF9FEF5F
:100260000895FC01918D228D892F90E0805C9F4F35
:10027000821B91098F739927089582E491E00E946F
:10028000310121E0892B09F420E0822F0895FC013F
:10029000848DDF01A80FB11DA35ABF4F2C91848D0F
:1002A00090E001968F739927848FA689B7892C9344
:1002B000A089B1898C9180648C93938D848D9813DF
:1002C00006C00288F389E02D80818F7D80830895A8
:1002D000EF92FF920F931F93CF93DF93EC0181E096
:1002E000888F9B8D8C8D981305C0E889F989808152
:1002F00085FD24C0F62E0B8D10E00F5F1F4F0F738E
:100300001127E02E8C8DE8120CC00FB607FCFACF37
:10031000E889F989808185FFF5CFCE010E944701E8
:10032000F1CF8B8DFE01E80FF11DE35AFF4FF082F4
:100330000B8FEA89FB898081806207C0EE89FF8983
:100340006083E889F98980818064808381E090E01E
:10035000DF91CF911F910F91FF90EF900895CF9370
:10036000DF93EC01888D8823C9F0EA89FB898081BD
:1003700085FD05C0A889B9898C9186FD0FC00FB68F
:1003800007FCF5CF808185FFF2CFA889B9898C91D0
:1003900085FFEDCFCE010E944701E7CFDF91CF91DE
:1003A0000895CF93DF93EC0188819981009711F034
:1003B0000E940506198218821D821C821B821A82E5
:1003C000DF91CF9108950E9467070F931F93CF93FA
:1003D000DF93EC0188819981009729F02A813B8184
:1003E0002617370788F48B016F5F7F4F0E949D06A9
:1003F000009761F0998388831B830A832C813D8158
:10040000232B11F4FC01108281E001C080E0DF9118
:10041000CF911F910F910895EF92FF920F931F9329
:10042000CF93DF93EC01198218821B821A821D82FE
:100430001C826115710521F18B01FB0101900020E7
:10044000E9F731977F01E61AF70AB7010E94E50143
:10045000811109C0CE01DF91CF911F910F91FF90C3
:10046000EF900C94D101FD82EC82B80188819981D2
:10047000DF91CF911F910F91FF90EF900C947E0729
:10048000DF91CF911F910F91FF90EF900895EF9220
:10049000FF920F931F93CF93DF938C017B01611524
:1004A000710569F0FB0101900020E9F73197EF0138
:1004B000C61BD70BBE010E94E501811104C0C80113
:1004C0000E94D10108C0F801D583C483B70180819F
:1004D00091810E947E07C801DF91CF911F910F91FA
:1004E000FF90EF900895EF92FF920F931F93CF9399
:1004F000DF9300D000D000D0CDB7DEB7FF24F39457
:1005000082E491E00E943101892B09F4ADC082E4BC
:1005100091E00E940F018A3009F082C08091E301CE
:100520009091E401009709F478C08C010150110901
:100530000817190708F071C08091DF019091E00160
:10054000009709F46AC0FC01E00FF11F80818D3033
:1005500009F063C066E371E0CE0101960E940C02CF
:100560008091E3019091E4010097E1F080179107F9
:1005700008F48C01E091DF01F091E001E00FF11F40
:10058000E08010826091DF017091E001CE01019660
:100590000E9447028091DF019091E001FC01E00F91
:1005A000F11FE0828091DF019091E0010097C9F096
:1005B00069817A816115710591F04091E101509155
:1005C000E2012D813E814217530748F00E947E07C9
:1005D0008D819E819093E4018093E30118C00E9475
:1005E000050689819A819093E0018093DF018B81D8
:1005F0009C819093E2018093E1018D819E81909393
:10060000E4018093E3011A8219821C821B821E82FC
:100610001D8289819A810E940506F092380170CF6F
:1006200089831A820091E3011091E4010F5F1F4F4B
:10063000B8018FED91E00E94E501882309F460CFB5
:100640002091DF013091E0018091E3019091E4017C
:10065000BE016F5F7F4F820F931F0E947E07109332
:10066000E4010093E3014CCF26960FB6F894DEBF69
:100670000FBECDBFDF91CF911F910F91FF90EF90F3
:1006800008950E943D0181110C94730208951F92F8
:100690000F920FB60F9211242F933F938F939F9336
:1006A000AF93BF9380913E0190913F01A091400193
:1006B000B091410130913D0123E0230F2D3720F40B
:1006C0000196A11DB11D05C026E8230F0296A11DAC
:1006D000B11D20933D0180933E0190933F01A09373
:1006E0004001B09341018091390190913A01A0916C
:1006F0003B01B0913C010196A11DB11D80933901D0
:1007000090933A01A0933B01B0933C01BF91AF910C
:100710009F918F913F912F910F900FBE0F901F903F
:1007200018951F920F920FB60F9211242F933F939B
:100730004F935F936F937F938F939F93AF93BF93E9
:10074000EF93FF9382E491E00E944701FF91EF91C4
:10075000BF91AF919F918F917F916F915F914F91D9
:100760003F912F910F900FBE0F901F9018951F92E1
:100770000F920FB60F9211242F938F939F93EF93A5
:10078000FF93E0915201F09153018081E091580173
:10079000F091590182FD12C0908180915B018F5FC1
:1007A0008F7320915C01821751F0E0915B01F0E0C2
:1007B000EE5BFE4F958F80935B0101C08081FF91BE
:1007C000EF919F918F912F910F900FBE0F901F90DF
:1007D0001895E2E4F1E01382128288EE93E0A0E043
:1007E000B0E084839583A683B7838AE091E0918308
:1007F000808385EC90E09587848784EC90E09787F0
:10080000868780EC90E0918B808B81EC90E0938BDD
:10081000828B82EC90E0958B848B86EC90E0978BBA
:10082000868B118E128E138E148E66E371E08FED1F
:1008300091E00C940C02CF93DF9300D000D000D055
:10084000CDB7DEB7789484B5826084BD84B581600D
:1008500084BD85B5826085BD85B5816085BD80918B
:100860006E00816080936E00109281008091810003
:1008700082608093810080918100816080938100FB
:10088000809180008160809380008091B1008460BD
:100890008093B1008091B00081608093B00080911E
:1008A0007A00846080937A0080917A0082608093DD
:1008B0007A0080917A00816080937A0080917A003A
:1008C000806880937A001092C100E0915201F0910B
:1008D000530182E08083E0914E01F0914F0110823C
:1008E000E0915001F09151018FEC808310925A01F8
:1008F000E0915601F091570186E08083E091540128
:10090000F0915501808180618083E0915401F091E4
:100910005501808188608083E0915401F0915501F8
:10092000808180688083E0915401F091550180813D
:100930008F7D808368EC70E08FED91E00E94E5018F
:10094000E2E9F0E02491EEE7F0E08491882399F069
:1009500090E0880F991FFC01E859FF4FA591B491D1
:10096000FC01EE58FF4F859194918FB7F894EC916C
:10097000E22BEC938FBF81E00E94880080913801C8
:10098000882309F462C08091E3019091E401892BEE
:10099000B9F00091DF011091E00168E171E0C80158
:1009A0000E947507892B11F481E008C06FE171E0A6
:1009B000C8010E947507892B19F480E00E94880005
:1009C00066E271E0CE0101960E940C028091E30183
:1009D0009091E401E090DF01F090E0010D811E8133
:1009E000E114F104A9F10097A1F0080F191FB80153
:1009F000CE0101960E94E501882351F129813A81B7
:100A00008D819E81B701820F931F0E947E071E83F6
:100A10000D834D815E8169817A8182E491E00E943B
:100A2000D10042E050E064E371E082E491E00E9492
:100A3000D10089819A810E94050666E371E08FEDFD
:100A400091E00E944702109238010E94410396CF24
:100A5000CE0101960E94D101DCCF8091DF019091FF
:100A6000E0010C9405062F923F924F925F926F9295
:100A70007F928F929F92AF92BF92CF92DF92EF922E
:100A8000FF920F931F93CF93DF93CDB7DEB7CA1BAF
:100A9000DB0B0FB6F894DEBF0FBECDBF09942A88DA
:100AA000398848885F846E847D848C849B84AA8482
:100AB000B984C884DF80EE80FD800C811B81AA810F
:100AC000B981CE0FD11D0FB6F894DEBF0FBECDBFDA
:100AD000ED010895EE0FFF1F0590F491E02D0994AC
:100AE000CF93DF938230910510F482E090E0E091A3
:100AF000E701F091E80120E030E0C0E0D0E030977D
:100B000011F14081518148175907C0F04817590722
:100B100061F482819381209719F09B838A832BC093
:100B20009093E8018093E70126C02115310519F063
:100B30004217530718F49A01BE01DF01EF0102804A
:100B4000F381E02DDCCF2115310509F1281B390B8C
:100B50002430310590F412968D919C911397611574
:100B6000710521F0FB019383828304C09093E80117
:100B70008093E701FD01329644C0FD01E20FF31FAF
:100B800081939193225031092D933C933AC0209147
:100B9000E5013091E601232B41F4209102013091CF
:100BA00003013093E6012093E5012091000130918B
:100BB00001012115310541F42DB73EB740910401E3
:100BC00050910501241B350BE091E501F091E60100
:100BD000E217F307A0F42E1B3F0B2817390778F014
:100BE000AC014E5F5F4F2417350748F04E0F5F1F73
:100BF0005093E6014093E5018193919302C0E0E0B8
:100C0000F0E0CF01DF91CF9108950F931F93CF9321
:100C1000DF93009709F48CC0FC0132971382128293
:100C20000091E7011091E8010115110581F420817F
:100C30003181820F931F2091E5013091E601281741
:100C4000390779F5F093E601E093E50171C0D80129
:100C500040E050E0AE17BF0750F412962D913C9142
:100C60001397AD012115310509F1D901F3CF9D018C
:100C7000DA013383228360817181860F971F821787
:100C8000930769F4EC0128813981260F371F2E5F05
:100C90003F4F318320838A819B8193838283452BBD
:100CA00029F4F093E801E093E70142C01396FC9326
:100CB000EE931297ED01499159919E01240F351F32
:100CC000E217F30771F480819181840F951F0296DA
:100CD00011969C938E938281938113969C938E930D
:100CE0001297E0E0F0E0D80112968D919C91139755
:100CF000009719F0F8018C01F6CF8D919C91980125
:100D00002E5F3F4F820F931F2091E5013091E60146
:100D10002817390769F4309729F41092E8011092E6
:100D2000E70102C0138212821093E6010093E501ED
:100D3000DF91CF911F910F910895A0E0B0E0E3EA19
:100D4000F6E00C943705EC01009721F4CB010E94EA
:100D50007005B8C0FC01E60FF71F9C012250310955
:100D6000E217F30708F4ACC0D9010D911C9111975B
:100D700006171707B0F00530110508F49FC0C80129
:100D800004978617970708F499C002501109061BAB
:100D9000170B019311936D937C93CF010E9405066D
:100DA0008DC05B01A01AB10A4C01800E911EA0916A
:100DB000E701B091E80140E050E0E12CF12C109700
:100DC00009F44AC0A815B905D1F56D907C9011972A
:100DD000630182E0C80ED11CCA14DB0480F1A301B8
:100DE0004A195B096A0182E0C80ED11C1296BC90B8
:100DF00012971396AC91B5E0CB16D10440F0B282B5
:100E0000A38351834083D9016D937C930AC00E5F05
:100E10001F4FC301800F911FF90191838083EB2D38
:100E2000FA2FE114F10431F0D7011396FC93EE93FD
:100E3000129744C0F093E801E093E7013FC08D9121
:100E40009C9111974817590708F4AC017D0112963F
:100E50000D90BC91A02DB3CF8091E5019091E6015A
:100E600088159905E1F446175707C8F480910001E9
:100E700090910101009741F48DB79EB74091040114
:100E800050910501841B950BE817F907C8F4F093FE
:100E9000E601E093E501F901718360830FC0CB01A6
:100EA0000E9470057C01009759F0A801BE010E94C4
:100EB0006C07CE010E940506C70104C0CE0102C026
:100EC00080E090E0CDB7DEB7EEE00C94530581E012
:100ED00090E0F8940C948507FB01DC0102C00190BE
:100EE0000D9241505040D8F70895FB01DC018D91DF
:100EF000019080190110D9F3990B0895FB01DC01D1
:100F000001900D920020E1F7089510E0CDE5D0E0CA
:100F100004C0FE010E946A052196CE35D107C9F7AB
:040F2000F894FFCF73
:100F24000000E9018000000000006801D100000118
:100F3400AF0131010F012301E58585E794B500E692
:100F440094BEE794B50066726F6D20417264756952
:080F54006E6F3A000D0A000067
:00000001FF
