:100000000C94DB000C9403010C9403010C94030189
:100010000C9403010C9403010C9403010C94030150
:100020000C9403010C9403010C9403010C94030140
:100030000C9403010C9403010C9403010C94030130
:100040000C9453030C9403010C9421030C94FB02B5
:100050000C9403010C9403010C9403010C94030110
:100060000C9403010C94030100407A10F35A00A091
:10007000724E18090010A5D4E80000E87648170071
:1000800000E40B54020000CA9A3B000000E1F505B1
:10009000000080969800000040420F000000A086FB
:1000A00001000000102700000000E803000000002D
:1000B0006400000000000A000000000001000000D1
:1000C00000002C76D888DC674F0823DFC1DFAE59EB
:1000D000E1B1B796E5E3E453C63AE651997696E87E
:1000E000E6C28426EB898C9B62ED407C6FFCEFBC02
:1000F0009C9F40F2BAA56FA5F490055A2AF75C932D
:100100006B6CF9676DC11BFCE0E40D47FEF520E662
:10011000B500D0ED902E0300943577050080841E45
:10012000080000204E0A000000C80C333333330FA0
:10013000986E12831141EF8D2114893BE65516CF3D
:10014000FEE6DB18D1844B381BF77C1D901DA4BB49
:10015000E424203284725E228100C9F124ECA1E5FE
:100160003D27000000080002010000030407000012
:1001700000000000000000000000250028002B0007
:1001800000000000240027002A00040404040404E2
:100190000404020202020202030303030303010236
:1001A0000408102040800102040810200102040805
:1001B00010209D035E0511241FBECFEFD8E0DEBFE7
:1001C000CDBF21E0A0E2B1E001C01D92A03DB20789
:1001D000E1F711E0A0E0B1E0E6E7F6E102C005904A
:1001E0000D92A032B107D9F710E0CAEDD0E004C0FB
:1001F0002197FE010E941C09C93DD107C9F70E9441
:10020000D8030C942E0B0C94000090E0FC01E256F5
:10021000FE4F2491FC01E657FE4F8491882399F00C
:1002200090E0880F991FFC01E058FE4FA591B49112
:10023000FC01EA58FE4F859194918FB7F894EC91A8
:10024000E22BEC938FBF0895CF92DF92EF92FF9253
:100250000F931F93CF93DF936C017A018B01C0E062
:10026000D0E0CE15DF0589F0D8016D918D01D60162
:10027000ED91FC910190F081E02DC6010995892B4B
:1002800011F47E0102C02196ECCFC701DF91CF911E
:100290001F910F91FF90EF90DF90CF9008950895F8
:1002A00080E090E00895FC01538D448D252F30E0CF
:1002B000842F90E0821B930B541710F0CF96089573
:1002C00001970895FC01918D828D981761F0828DC0
:1002D000DF01A80FB11D5D968C91928D9F5F9F737A
:1002E000928F90E008958FEF9FEF0895FC01918D1C
:1002F000828D981731F0828DE80FF11D858D90E089
:1003000008958FEF9FEF0895FC01918D228D892F25
:1003100090E0805C9F4F821B91098F73992708950D
:1003200089E291E00E94840121E0892B09F420E018
:10033000822F0895FC01848DDF01A80FB11DA35AFF
:10034000BF4F2C91848D90E001968F739927848FF5
:10035000A689B7892C93A089B1898C9180648C93EC
:10036000938D848D981306C00288F389E02D8081D7
:100370008F7D80830895EF92FF920F931F93CF9309
:10038000DF93EC0181E0888F9B8D8C8D981305C0E5
:10039000E889F989808185FD24C0F62E0B8D10E057
:1003A0000F5F1F4F0F731127E02E8C8DE8120CC0CA
:1003B0000FB607FCFACFE889F989808185FFF5CF70
:1003C000CE010E949A01F1CF8B8DFE01E80FF11D45
:1003D000E35AFF4FF0820B8FEA89FB8980818062AC
:1003E00007C0EE89FF896083E889F989808180648C
:1003F000808381E090E0DF91CF911F910F91FF907A
:10040000EF900895CF93DF93EC01888D8823C9F096
:10041000EA89FB89808185FD05C0A889B9898C910D
:1004200086FD0FC00FB607FCF5CF808185FFF2CFA8
:10043000A889B9898C9185FFEDCFCE010E949A01E0
:10044000E7CFDF91CF91089580E090E0892B29F0EC
:100450000E94900181110C940000089590E0FC012D
:10046000EE59FE4F3491FC01E256FE4F2491FC01FF
:10047000E657FE4FE491EE2309F43BC0332339F1F4
:10048000333091F038F43130A9F0323001F584B5D1
:100490008F7D12C0373091F03830A1F03430B9F48C
:1004A000809180008F7D03C0809180008F77809342
:1004B00080000DC084B58F7784BD09C08091B000E5
:1004C0008F7703C08091B0008F7D8093B000F0E003
:1004D000EE0FFF1FEA58FE4FA591B4918FB7F89425
:1004E000EC91611103C020952E2301C02E2B2C937B
:1004F0008FBF08953FB7F894809125019091260110
:10050000A0912701B091280126B5A89B05C02F3FD7
:1005100019F00196A11DB11D3FBFBA2FA92F982F29
:100520008827820F911DA11DB11DBC01CD0142E0A4
:10053000660F771F881F991F4A95D1F70895CF93AB
:10054000DF93EC0188819981009711F00E94B7092F
:10055000198218821D821C821B821A82DF91CF9120
:1005600008950E94190B0F931F93CF93DF93EC0113
:1005700088819981009729F02A813B8126173707C6
:1005800088F48B016F5F7F4F0E944F0A009761F0E4
:10059000998388831B830A832C813D81232B11F44B
:1005A000FC01108281E001C080E0DF91CF911F91BA
:1005B0000F910895EF92FF920F931F93CF93DF93C4
:1005C000EC017B018A01BA010E94B302811104C0CF
:1005D000CE010E949F0207C01D830C83B701888152
:1005E00099810E94270BCE01DF91CF911F910F912E
:1005F000FF90EF9008951F920F920FB60F92112463
:100600002F933F934F935F936F937F938F939F931A
:10061000AF93BF93EF93FF9389E291E00E949A0119
:10062000FF91EF91BF91AF919F918F917F916F91CA
:100630005F914F913F912F910F900FBE0F901F90A0
:1006400018951F920F920FB60F9211242F938F932C
:100650009F93EF93FF93E0913901F0913A018081EC
:10066000E0913F01F091400182FD12C090818091A4
:1006700042018F5F8F7320914301821751F0E09107
:100680004201F0E0E75DFE4F958F8093420101C08B
:100690008081FF91EF919F918F912F910F900FBECD
:1006A0000F901F9018951F920F920FB60F92112462
:1006B0002F933F938F939F93AF93BF93809121018B
:1006C00090912201A0912301B09124013091200149
:1006D00023E0230F2D3720F40196A11DB11D05C085
:1006E00026E8230F0296A11DB11D209320018093BF
:1006F000210190932201A0932301B09324018091C2
:10070000250190912601A0912701B0912801019621
:10071000A11DB11D8093250190932601A09327016F
:10072000B0932801BF91AF919F918F913F912F91ED
:100730000F900FBE0F901F901895E9E2F1E0138221
:10074000128288EE93E0A0E0B0E084839583A683D4
:10075000B7838CE091E09183808385EC90E095876E
:10076000848784EC90E09787868780EC90E0918B7B
:10077000808B81EC90E0938B828B82EC90E0958B68
:10078000848B86EC90E0978B868B118E128E138E65
:10079000148EE6ECF1E0118210821382128215822F
:1007A000148240E050E06EE171E0CF010C94DA0277
:1007B000CF93DF93CDB7DEB7A7970FB6F894DEBF20
:1007C0000FBECDBF789484B5826084BD84B581604E
:1007D00084BD85B5826085BD85B5816085BD80910C
:1007E0006E00816080936E00109281008091810084
:1007F000826080938100809181008160809381007C
:10080000809180008160809380008091B10084603D
:100810008093B1008091B00081608093B00080919E
:100820007A00846080937A0080917A00826080935D
:100830007A0080917A00816080937A0080917A00BA
:10084000806880937A001092C100E0913901F091A4
:100850003A0182E08083E0913501F0913601108207
:10086000E0913701F09138018FEC808310924101C3
:10087000E0913D01F0913E0186E08083E0913B01F3
:10088000F0913C01808180618083E0913B01F09197
:100890003C01808188608083E0913B01F0913C01C4
:1008A000808180688083E0913B01F0913C018081F0
:1008B0008F7D808384E00E94050183E00E94050112
:1008C00061E084E00E942E0260E083E00E942E023C
:1008D00090E4B92EB0927C0080917A00806480937D
:1008E0007A0080917A0086FDFCCF6091780020919B
:1008F000790080910001909101018A3091050CF0FE
:100900008EC0019690930101809300011BA21AA250
:100910001DA21CA21FA21EA270E0722B072E000CAB
:10092000880B990B0E94EC072AE038E240EA5BE36F
:100930000E9427088E010F5F1F4F22E044E00E94B3
:100940006405009771F0FC0101900020E9F73197F0
:10095000AF01481B590BBC01CE0182960E94DA02FE
:1009600004C0CE0182960E949F021A8219821C82C4
:100970001B821E821D826AA17BA16115710531F067
:100980004EA15FA1CE0101960E94DA02ED80FE80A9
:100990002FEFE21AF20AB701CE0101960E94B302CC
:1009A000882309F486C029813A818D819E816AE17C
:1009B00071E0820F931F0E94270BFE82ED828D81D2
:1009C0009E81C980DA80E090CA01F090CB01C11409
:1009D000D104E1F00097D1F0E80EF91EB70186ECE2
:1009E00091E00E94B302882389F02091C6013091E2
:1009F000C7018091CA019091CB01B601820F931F6C
:100A00000E94270BF092CB01E092CA0189819A8162
:100A10000E94B7098AA19BA10E94B70920C04091FA
:100A2000CA015091CB016091C6017091C70189E262
:100A300091E00E94240142E050E06CE171E089E223
:100A400091E00E942401109201011092000140E007
:100A500050E06EE171E086EC91E00E94DA020E94C3
:100A60007A022B013C018CE2C82EDD24D394E12CC8
:100A7000F12C0E947A02DC01CB0184199509A609A8
:100A8000B709883E9340A105B10558F081E0C81A26
:100A9000D108E108F10828EE420E23E0521E611C45
:100AA000711CC114D104E104F10419F70E9424025D
:100AB00011CFCE0101960E949F0281CF8091C60185
:100AC0009091C7010C94B709EF920F931F93CF93A6
:100AD000DF93E80147FD02C034E001C034E1E42FB8
:100AE000440FFF0BF7FF03C0F195E195F109E32EE9
:100AF000022F2E2FAE010E948405CE01DF91CF91EF
:100B00001F910F91EF9008954F925F926F927F9295
:100B10009F92AF92BF92CF92DF92EF92FF920F938C
:100B20001F93CF93DF93CDB7DEB729970FB6F89415
:100B3000DEBF0FBECDBF6A01122FB02E2BE32017F0
:100B400020F0FF24F394F00E02C0BCE3FB2E0F2D27
:100B500027E0AE014F5F5F4F0E941207AC01898111
:100B6000982F9970913031F0E1FC06C0E0FE06C08C
:100B700090E205C09DE203C09BE201C090E0EE2D33
:100B8000E07183FF3CC0911102C083E001C084E0AA
:100B9000811718F4212F281B01C020E0E1110BC0A0
:100BA000F601822F30E2882319F031938150FBCF78
:100BB000C20ED11C20E0992329F0D6019C93F601A6
:100BC00031966F01C6010396E2FE0AC03EE4D601EB
:100BD0003C9341E411964C93119712963C9306C0B6
:100BE0003EE6F601308341E641833283FC01322F39
:100BF00040E2332309F442C041933150FACF82FFDF
:100C000044C0911102C083E001C084E0811718F450
:100C1000212F281B01C020E0E1110BC0F601822F1B
:100C200030E2882319F031938150FBCFC20ED11CE2
:100C300020E0992329F0D6019C93F60131966F01AB
:100C4000C6010396E2FE0BC039E4D6013C933EE4B4
:100C500011963C93119736E412963C9307C039E6FF
:100C6000F60130833EE6318336E63283FC01322FD3
:100C700040E2332319F041933150FBCFFC01E20FE6
:100C8000F11D10828EEF9FEFB7C0F1E0911101C00E
:100C9000F0E06F2F70E01416150624F49A012F5F10
:100CA0003F4F02C021E030E0260F371FBB2029F064
:100CB0006B2D70E06F5F7F4F02C060E070E0260F29
:100CC000371F612F70E0261737071CF4121B212FE6
:100CD00001C020E03E2D387159F4D601322F60E278
:100CE000332319F06D933150FBCFC20ED11C20E09D
:100CF000FF2331F0D6019C93B6016F5F7F4F6B01EC
:100D0000E1110BC0F601922F30E3992319F03193D2
:100D10009150FBCFC20ED11C20E09F2D940F3A8141
:100D2000782F7071A72E84FF03C0313309F49150DE
:100D3000191624F4993018F098E001C091E0E42FDE
:100D4000852F57FF02C0E0E080E06E2F782FE0E0B3
:100D5000F0E0AEE29A2E3A01691A71082A01461AA9
:100D6000570A0B2D10E01195019511096F3F8FEF78
:100D7000780729F4D6019C92C60101966C014617AA
:100D8000570784F0661677066CF47F01E40CF51CB7
:100D9000A1E0B0E0AC0FBD1FEA0EFB1ED70111961B
:100DA000BC9002C090E3B92E615071093196C60122
:100DB00001967C016017710724F0D601BC926C018A
:100DC000D5CF6417750741F4363320F4353321F459
:100DD000A11002C081E3B82EF601B082F701822F84
:100DE00090E2882319F091938150FBCFF701E20F35
:100DF000F11D108280E090E029960FB6F894DEBFD6
:100E00000FBECDBFDF91CF911F910F91FF90EF905B
:100E1000DF90CF90BF90AF909F907F906F905F904A
:100E20004F900895283008F027E03327DA01990F12
:100E3000311D87FD916000966105710539F43260BE
:100E40002E5F3D9330E32A95E1F708959F3F30F000
:100E500080387105610509F03C5F3C5F3D9391303E
:100E600008F08068911DDF93CF931F930F93FF923B
:100E7000EF92192F987F9695E92F96959695E90F01
:100E8000FF27EE53FF4F99273327EE24FF24A701B6
:100E9000E70105900894079428F4360FE71EF81E22
:100EA000491F511D660F771F881F991F0694A1F7D0
:100EB0000590079428F4E70EF81E491F561FC11D20
:100EC000770F881F991F661F0694A1F70590079456
:100ED00028F4F80E491F561FC71FD11D880F991FF0
:100EE000661F771F0694A1F70590079420F4490F19
:100EF000561FC71FD81F990F661F771F881F06949C
:100F0000A9F784911095177041F0D695C79557951C
:100F10004795F794E7941A95C1F7E8E6F0E06894EE
:100F20001590159135916591959105907FE2739596
:100F3000E118F10A430B560BC90BD009C0F7E10CBD
:100F4000F11E431F561FC91FD01D7EF4703311F4CC
:100F50008A95E6CFE894015030F0080F0AF4002794
:100F6000021708F4202F2395022F7A3328F079E313
:100F70007D932A95E9F710C07D932A9589F606940A
:100F800097956795379517951794E118F10A430BD4
:100F9000560BC90BD00998F023957E9173957A333F
:100FA00008F070E37C932013B8F77E9170617D9315
:100FB00030F0839571E37D9370E32A95E1F7112476
:100FC000EF90FF900F911F91CF91DF91992787FDAF
:100FD00090950895E89409C097FB3EF4909580950C
:100FE000709561957F4F8F4F9F4F9923A9F0F92FEF
:100FF00096E9BB279395F695879577956795B7956D
:10100000F111F8CFFAF4BB0F11F460FF1BC06F5F52
:101010007F4F8F4F9F4F16C0882311F096E911C064
:10102000772321F09EE8872F762F05C0662371F085
:1010300096E8862F70E060E02AF09A95660F771F99
:10104000881FDAF7880F9695879597F908950E947B
:101050003A080C94AB080E949D0838F00E94A4083E
:1010600020F0952311F00C9494080C949A08112404
:101070000C94DF080E94BC0870F3959FC1F3950F94
:1010800050E0551F629FF001729FBB27F00DB11D0C
:10109000639FAA27F00DB11DAA1F649F6627B00D9C
:1010A000A11D661F829F2227B00DA11D621F739F85
:1010B000B00DA11D621F839FA00D611D221F749F93
:1010C0003327A00D611D231F849F600D211D822FDA
:1010D000762F6A2F11249F5750409AF0F1F0882301
:1010E0004AF0EE0FFF1FBB1F661F771F881F91502E
:1010F0005040A9F79E3F510580F00C9494080C9441
:10110000DF085F3FE4F3983ED4F3869577956795C3
:10111000B795F795E7959F5FC1F7FE2B880F911D57
:101120009695879597F9089597F99F6780E870E0FD
:1011300060E008959FEF80EC089500240A9416164D
:10114000170618060906089500240A9412161306B5
:10115000140605060895092E0394000C11F4882343
:1011600052F0BB0F40F4BF2B11F460FF04C06F5F5F
:101170007F4F8F4F9F4F089557FD9058440F551F35
:1011800059F05F3F71F04795880F97FB991F61F009
:101190009F3F79F087950895121613061406551F80
:1011A000F2CF4695F1DF08C0161617061806991FEC
:1011B000F1CF86957105610508940895E894BB27E1
:1011C00066277727CB0197F908952F923F924F9288
:1011D0005F926F927F928F929F92AF92BF92CF92C7
:1011E000DF92EF92FF920F931F93CF93DF93CDB7D0
:1011F000DEB7CA1BDB0B0FB6F894DEBF0FBECDBF48
:1012000009942A88398848885F846E847D848C8418
:101210009B84AA84B984C884DF80EE80FD800C8121
:101220001B81AA81B981CE0FD11D0FB6F894DEBF04
:101230000FBECDBFED010895EE0FFF1F0590F49195
:10124000E02D0994CF93DF938230910510F482E072
:1012500090E0E091CE01F091CF0120E030E0C0E0DD
:10126000D0E0309711F14081518148175907C0F003
:101270004817590761F482819381209719F09B8365
:101280008A832BC09093CF018093CE0126C0211575
:10129000310519F04217530718F49A01BE01DF0116
:1012A000EF010280F381E02DDCCF2115310509F13A
:1012B000281B390B2430310590F412968D919C91A6
:1012C00013976115710521F0FB019383828304C09C
:1012D0009093CF018093CE01FD01329644C0FD0171
:1012E000E20FF31F81939193225031092D933C9388
:1012F0003AC02091CC013091CD01232B41F42091B3
:101300000401309105013093CD012093CC0120914F
:101310000201309103012115310541F42DB73EB78B
:101320004091060150910701241B350BE091CC013F
:10133000F091CD01E217F307A0F42E1B3F0B281705
:10134000390778F0AC014E5F5F4F2417350748F03E
:101350004E0F5F1F5093CD014093CC018193919329
:1013600002C0E0E0F0E0CF01DF91CF9108950F934C
:101370001F93CF93DF93009709F48CC0FC01329741
:10138000138212820091CE011091CF010115110537
:1013900081F420813181820F931F2091CC01309103
:1013A000CD012817390779F5F093CD01E093CC01F1
:1013B00071C0D80140E050E0AE17BF0750F412965C
:1013C0002D913C911397AD012115310509F1D901FA
:1013D000F3CF9D01DA013383228360817181860F0F
:1013E000971F8217930769F4EC0128813981260F32
:1013F000371F2E5F3F4F318320838A819B819383E8
:101400008283452B29F4F093CF01E093CE0142C0B3
:101410001396FC93EE931297ED01499159919E0119
:10142000240F351FE217F30771F480819181840F37
:10143000951F029611969C938E93828193811396A9
:101440009C938E931297E0E0F0E0D80112968D9174
:101450009C911397009719F0F8018C01F6CF8D91AC
:101460009C9198012E5F3F4F820F931F2091CC01DA
:101470003091CD012817390769F4309729F410927B
:10148000CF011092CE0102C0138212821093CD01BF
:101490000093CC01DF91CF911F910F910895A0E0AF
:1014A000B0E0E5E5FAE00C94E908EC01009721F4DE
:1014B000CB010E942209B8C0FC01E60FF71F9C0176
:1014C00022503109E217F30708F4ACC0D9010D919D
:1014D0001C91119706171707B0F00530110508F495
:1014E0009FC0C80104978617970708F499C0025057
:1014F0001109061B170B019311936D937C93CF0178
:101500000E94B7098DC05B01A01AB10A4C01800E80
:10151000911EA091CE01B091CF0140E050E0E12CAE
:10152000F12C109709F44AC0A815B905D1F56D90B2
:101530007C901197630182E0C80ED11CCA14DB04B1
:1015400080F1A3014A195B096A0182E0C80ED11C2F
:101550001296BC9012971396AC91B5E0CB16D104BD
:1015600040F0B282A38351834083D9016D937C9371
:101570000AC00E5F1F4FC301800F911FF9019183B5
:101580008083EB2DFA2FE114F10431F0D70113968B
:10159000FC93EE93129744C0F093CF01E093CE01F9
:1015A0003FC08D919C9111974817590708F4AC01E1
:1015B0007D0112960D90BC91A02DB3CF8091CC01EE
:1015C0009091CD0188159905E1F446175707C8F4A5
:1015D0008091020190910301009741F48DB79EB76D
:1015E0004091060150910701841B950BE817F907FC
:1015F000C8F4F093CD01E093CC01F90171836083CD
:101600000FC0CB010E9422097C01009759F0A8016C
:10161000BE010E941E0BCE010E94B709C70104C083
:10162000CE0102C080E090E0CDB7DEB7EEE00C94D2
:10163000050981E090E0F8940C942E0BFB01DC018D
:1016400002C001900D9241505040D8F70895FB011F
:10165000DC0101900D920020E1F7089510E0CAED41
:10166000D0E004C0FE010E941C092196CB3DD107A9
:06167000C9F7F894FFCF5A
:101676000A000000D001800000000000BB01240128
:101686005301020284016201760120000D0A000066
:00000001FF
