:100000000C9462000C948A000C948A000C948A0070
:100010000C948A000C948A000C948A000C948A0038
:100020000C948A000C948A000C948A000C948A0028
:100030000C948A000C948A000C948A000C948A0018
:100040000C943E030C948A000C940C030C94E6026E
:100050000C948A000C948A000C948A000C948A00F8
:100060000C948A000C948A000000000023002600F3
:10007000290000000008000201000003040700003E
:1000800000000000000000000000250028002B00F8
:1000900000000000240027002A00040404040404D3
:1000A0000404020202020202030303030303010227
:1000B00004081020408001020408102001020408F6
:1000C0001020EA0411241FBECFEFD8E0DEBFCDBF61
:1000D00011E0A0E0B1E0ECE8FAE002C005900D927A
:1000E000AE36B107D9F722E0AEE6B1E001C01D920D
:1000F000A931B207E1F710E0C2E6D0E004C02197D1
:10010000FE010E943905C136D107C9F70E94880354
:100110000C9444050C940000CF92DF92EF92FF9272
:100120000F931F93CF93DF936C017A018B01C0E093
:10013000D0E0CE15DF0589F0D8016D918D01D60193
:10014000ED91FC910190F081E02DC6010995892B7C
:1001500011F47E0102C02196ECCFC701DF91CF914F
:100160001F910F91FF90EF90DF90CF900895089529
:1001700080E090E00895FC01538D448D252F30E000
:10018000842F90E0821B930B541710F0CF960895A4
:1001900001970895FC01918D828D981761F0828DF1
:1001A000DF01A80FB11D5D968C91928D9F5F9F73AB
:1001B000928F90E008958FEF9FEF0895FC01918D4D
:1001C000828D981731F0828DE80FF11D858D90E0BA
:1001D00008958FEF9FEF0895FC01918D228D892F57
:1001E00090E0805C9F4F821B91098F73992708953F
:1001F0008CE791E00E94EC0021E0892B09F420E0DB
:10020000822F0895FC01848DDF01A80FB11DA35A30
:10021000BF4F2C91848D90E001968F739927848F26
:10022000A689B7892C93A089B1898C9180648C931D
:10023000938D848D981306C00288F389E02D808108
:100240008F7D80830895EF92FF920F931F93CF933A
:10025000DF93EC0181E0888F9B8D8C8D981305C016
:10026000E889F989808185FD24C0F62E0B8D10E088
:100270000F5F1F4F0F731127E02E8C8DE8120CC0FB
:100280000FB607FCFACFE889F989808185FFF5CFA1
:10029000CE010E940201F1CF8B8DFE01E80FF11D0E
:1002A000E35AFF4FF0820B8FEA89FB8980818062DD
:1002B00007C0EE89FF896083E889F98980818064BD
:1002C000808381E090E0DF91CF911F910F91FF90AB
:1002D000EF900895CF93DF93EC01888D8823C9F0C8
:1002E000EA89FB89808185FD05C0A889B9898C913F
:1002F00086FD0FC00FB607FCF5CF808185FFF2CFDA
:10030000A889B9898C9185FFEDCFCE010E940201A9
:10031000E7CFDF91CF91089580E090E0892B29F01D
:100320000E94F80081110C9400000895833081F040
:1003300028F4813099F08230A1F008958730A9F037
:100340008830B9F08430D1F4809180008F7D03C073
:10035000809180008F7780938000089584B58F7797
:1003600002C084B58F7D84BD08958091B0008F77E1
:1003700003C08091B0008F7D8093B0000895CF932B
:10038000DF93282F30E0F901EE58FF4F8491F901F7
:10039000E255FF4FD491F901E656FF4FC491CC23AB
:1003A00091F081110E949601EC2FF0E0EE0FFF1FFB
:1003B000E859FF4FA591B491EC91ED2381E090E0D5
:1003C00021F480E002C080E090E0DF91CF910895B9
:1003D0001F93CF93DF93282F30E0F901EE58FF4FA2
:1003E0008491F901E255FF4FD491F901E656FF4F90
:1003F000C491CC23C9F0162F81110E949601EC2FD5
:10040000F0E0EE0FFF1FEA57FF4FA591B4918FB7B1
:10041000F894111105C09C91ED2FE095E92302C0DD
:10042000EC91ED2BEC938FBFDF91CF911F9108954D
:100430003FB7F8948091730190917401A091750178
:10044000B091760126B5A89B05C02F3F19F0019603
:10045000A11DB11D3FBFBA2FA92F982F8827820F4A
:10046000911DA11DB11DBC01CD0142E0660F771F9A
:10047000881F991F4A95D1F708958F929F92AF9246
:10048000BF92CF92DF92EF92FF926B017C010E94AC
:1004900018024B015C01C114D104E104F104F1F034
:1004A0000E941802DC01CB0188199909AA09BB092D
:1004B000883E9340A105B10570F321E0C21AD1082E
:1004C000E108F10888EE880E83E0981EA11CB11C9B
:1004D000C114D104E104F10419F7DDCFFF90EF90CE
:1004E000DF90CF90BF90AF909F908F9008952FB7DF
:1004F000F89460916F0170917001809171019091F9
:1005000072012FBF0895009769F0FC01019000204F
:10051000E9F73197AF01481B590BBC018CE791E01B
:100520000C948C0080E090E00895CF93DF930E94BC
:100530008302EC0183E191E00E9483028C0F9D1FF6
:10054000DF91CF9108958F929F92AF92BF920F93B8
:100550001F93CF93DF93CDB7DEB7A1970FB6F89473
:10056000DEBF0FBECDBF19A2423008F44AE08E01B3
:100570000F5D1F4F842E912CA12CB12CA50194014D
:100580000E941705E62FB901CA0101501109EA308E
:1005900014F4E05D01C0E95CD801EC93232B242B1B
:1005A000252B61F7C8010E948302A1960FB6F8942B
:1005B000DEBF0FBECDBFDF91CF911F910F91BF90D6
:1005C000AF909F908F9008950E943F051F920F92C9
:1005D0000FB60F9211242F933F934F935F936F9316
:1005E0007F938F939F93AF93BF93EF93FF938CE78A
:1005F00091E00E940201FF91EF91BF91AF919F9115
:100600008F917F916F915F914F913F912F910F90BB
:100610000FBE0F901F9018951F920F920FB60F925A
:1006200011242F938F939F93EF93FF93E0918C016D
:10063000F0918D018081E0919201F091930182FD12
:1006400012C09081809195018F5F8F7320919601E8
:10065000821751F0E0919501F0E0E458FE4F958F3C
:100660008093950101C08081FF91EF919F918F91BF
:100670002F910F900FBE0F901F9018951F920F9201
:100680000FB60F9211242F933F938F939F93AF93A5
:10069000BF9380916F0190917001A0917101B09111
:1006A000720130916E0123E0230F2D3720F4019663
:1006B000A11DB11D05C026E8230F0296A11DB11D85
:1006C00020936E0180936F0190937001A09371014C
:1006D000B09372018091730190917401A0917501A2
:1006E000B09176010196A11DB11D80937301909385
:1006F0007401A0937501B0937601BF91AF919F9162
:100700008F913F912F910F900FBE0F901F901895D2
:10071000789484B5826084BD84B5816084BD85B5DC
:10072000826085BD85B5816085BD80916E008160E8
:1007300080936E001092810080918100826080938E
:100740008100809181008160809381008091800090
:100750008160809380008091B10084608093B100BB
:100760008091B00081608093B00080917A008460B5
:1007700080937A0080917A00826080937A008091E1
:100780007A00816080937A0080917A0080688093FB
:100790007A001092C100E0918C01F0918D0182E00D
:1007A0008083E0918801F09189011082E0918A01B3
:1007B000F0918B018FEC808310929401E091900175
:1007C000F091910186E08083E0918E01F0918F019C
:1007D000808180618083E0918E01F0918F01808122
:1007E00088608083E0918E01F0918F018081806824
:1007F0008083E0918E01F0918F0180818F7D8083D5
:10080000E1EBF0E02491EDE9F0E084918823C1F080
:1008100090E0880F991FFC01E057FF4FC591D491DC
:10082000FC01EA57FF4FA591B4919FB7F8948881D6
:10083000E22FE0958E2388838C91E823EC939FBF71
:10084000EBEBF0E02491E7EAF0E08491882399F063
:1008500090E0880F991FFC01E057FF4FA591B491DC
:10086000FC01EA57FF4F859194918FB7F894EC9172
:10087000E22BEC938FBF60E083E00E94E80186E109
:1008800091E00E948302CEE1D0E08AE291E00E94F2
:10089000830268EE73E080E090E00E943D022197C1
:1008A000A1F78CE291E00E94950282E391E00E9420
:1008B000950262E370E080E090E00E943D0288EEE5
:1008C000C82E83E0D82EE12CF12C83E00E94BF01DA
:1008D000019751F561E08DE00E94E80180910001EF
:1008E0008823F9F01092000180E491E00E949502C3
:1008F00084E491E00E9483020E947702A70196019E
:100900000E941705CA01B9014AE00E94A30288E5C6
:1009100091E00E94950262E370E080E090E00E9426
:100920003D0281E080937B0183E00E94BF01892B1F
:1009300069F560E08DE00E94E80180917B018823E9
:1009400061F00E9477026093770170937801809341
:10095000790190937A0110927B01809100018111BD
:1009600015C00E94770200917701109178012091C3
:10097000790130917A01DC01CB01801B910BA20B34
:10098000B30B89389341A105B10518F40E948C017D
:100990009CCF81E0809300018DE591E00E9483026D
:1009A0000E9477026858734181099109A701960155
:1009B0000E941705CA01B9014AE00E94A30288E516
:1009C00091E00E94950262E370E080E090E00E9476
:1009D0003D02DCCFECE7F1E01382128288EE93E077
:1009E000A0E0B0E084839583A683B78385E091E09F
:1009F0009183808385EC90E09587848784EC90E0F8
:100A00009787868780EC90E0918B808B81EC90E0DB
:100A1000938B828B82EC90E0958B848B86EC90E0BC
:100A2000978B868B118E128E138E148E0895A1E2F1
:100A30001A2EAA1BBB1BFD010DC0AA1FBB1FEE1F58
:100A4000FF1FA217B307E407F50720F0A21BB30BA3
:100A5000E40BF50B661F771F881F991F1A9469F71F
:100A600060957095809590959B01AC01BD01CF017B
:100A70000895EE0FFF1F0590F491E02D099481E099
:0C0A800090E0F8940C944405F894FFCF2B
:100A8C00010000000023018C00BB006A01EC00CACD
:100A9C0000DE000D0A0063616C6962726174696E3C
:100AAC00672073656E736F7220002E0020646F6E6A
:100ABC00650053454E534F5220414354495645000F
:100ACC002D2D2D006D6F74696F6E206465746563D8
:100ADC00746564206174200020736563006D6F740D
:0E0AEC00696F6E20656E646564206174200081
:00000001FF
